{"contracts/fullSchoolSystem.sol":{"Child":{"abi":[{"inputs":[],"name":"sayHello","outputs":[{"internalType":"string","name":"","type":"string"}],"stateMutability":"pure","type":"function"},{"inputs":[],"name":"sayHelloFromChild","outputs":[{"internalType":"string","name":"","type":"string"}],"stateMutability":"pure","type":"function"}],"evm":{"bytecode":{"linkReferences":{},"object":"608060405234801561001057600080fd5b50610257806100206000396000f3fe608060405234801561001057600080fd5b50600436106100365760003560e01c806382a5ab801461003b578063ef5fb05b14610059575b600080fd5b610043610077565b60405161005091906101ff565b60405180910390f35b6100616100f0565b60405161006e91906101ff565b60405180910390f35b606061008d67d8cf8d89b5ccad8e60c01b610169565b6100a167e29495911fd2ef0660c01b610169565b6100b56746f2a7abe3fe329b60c01b610169565b6040518060400160405280601081526020017f48656c6c6f2066726f6d204368696c6400000000000000000000000000000000815250905090565b606061010667fc5ed61919e91bb460c01b61016c565b61011a671ce0926f6ea3ec2b60c01b61016c565b61012e67dbf61d8f5ca1203e60c01b61016c565b6040518060400160405280601181526020017f48656c6c6f2066726f6d20506172656e74000000000000000000000000000000815250905090565b50565b50565b600081519050919050565b600082825260208201905092915050565b60005b838110156101a957808201518184015260208101905061018e565b60008484015250505050565b6000601f19601f8301169050919050565b60006101d18261016f565b6101db818561017a565b93506101eb81856020860161018b565b6101f4816101b5565b840191505092915050565b6000602082019050818103600083015261021981846101c6565b90509291505056fea2646970667358221220a1e90ca09fef0580b9fda144c7cdff7a04eaadd2d82fde96683cb70389190c8d64736f6c63430008130033","opcodes":"PUSH1 0x80 PUSH1 0x40 MSTORE CALLVALUE DUP1 ISZERO PUSH2 0x10 JUMPI PUSH1 0x0 DUP1 REVERT JUMPDEST POP PUSH2 0x257 DUP1 PUSH2 0x20 PUSH1 0x0 CODECOPY PUSH1 0x0 RETURN INVALID PUSH1 0x80 PUSH1 0x40 MSTORE CALLVALUE DUP1 ISZERO PUSH2 0x10 JUMPI PUSH1 0x0 DUP1 REVERT JUMPDEST POP PUSH1 0x4 CALLDATASIZE LT PUSH2 0x36 JUMPI PUSH1 0x0 CALLDATALOAD PUSH1 0xE0 SHR DUP1 PUSH4 0x82A5AB80 EQ PUSH2 0x3B JUMPI DUP1 PUSH4 0xEF5FB05B EQ PUSH2 0x59 JUMPI JUMPDEST PUSH1 0x0 DUP1 REVERT JUMPDEST PUSH2 0x43 PUSH2 0x77 JUMP JUMPDEST PUSH1 0x40 MLOAD PUSH2 0x50 SWAP2 SWAP1 PUSH2 0x1FF JUMP JUMPDEST PUSH1 0x40 MLOAD DUP1 SWAP2 SUB SWAP1 RETURN JUMPDEST PUSH2 0x61 PUSH2 0xF0 JUMP JUMPDEST PUSH1 0x40 MLOAD PUSH2 0x6E SWAP2 SWAP1 PUSH2 0x1FF JUMP JUMPDEST PUSH1 0x40 MLOAD DUP1 SWAP2 SUB SWAP1 RETURN JUMPDEST PUSH1 0x60 PUSH2 0x8D PUSH8 0xD8CF8D89B5CCAD8E PUSH1 0xC0 SHL PUSH2 0x169 JUMP JUMPDEST PUSH2 0xA1 PUSH8 0xE29495911FD2EF06 PUSH1 0xC0 SHL PUSH2 0x169 JUMP JUMPDEST PUSH2 0xB5 PUSH8 0x46F2A7ABE3FE329B PUSH1 0xC0 SHL PUSH2 0x169 JUMP JUMPDEST PUSH1 0x40 MLOAD DUP1 PUSH1 0x40 ADD PUSH1 0x40 MSTORE DUP1 PUSH1 0x10 DUP2 MSTORE PUSH1 0x20 ADD PUSH32 0x48656C6C6F2066726F6D204368696C6400000000000000000000000000000000 DUP2 MSTORE POP SWAP1 POP SWAP1 JUMP JUMPDEST PUSH1 0x60 PUSH2 0x106 PUSH8 0xFC5ED61919E91BB4 PUSH1 0xC0 SHL PUSH2 0x16C JUMP JUMPDEST PUSH2 0x11A PUSH8 0x1CE0926F6EA3EC2B PUSH1 0xC0 SHL PUSH2 0x16C JUMP JUMPDEST PUSH2 0x12E PUSH8 0xDBF61D8F5CA1203E PUSH1 0xC0 SHL PUSH2 0x16C JUMP JUMPDEST PUSH1 0x40 MLOAD DUP1 PUSH1 0x40 ADD PUSH1 0x40 MSTORE DUP1 PUSH1 0x11 DUP2 MSTORE PUSH1 0x20 ADD PUSH32 0x48656C6C6F2066726F6D20506172656E74000000000000000000000000000000 DUP2 MSTORE POP SWAP1 POP SWAP1 JUMP JUMPDEST POP JUMP JUMPDEST POP JUMP JUMPDEST PUSH1 0x0 DUP2 MLOAD SWAP1 POP SWAP2 SWAP1 POP JUMP JUMPDEST PUSH1 0x0 DUP3 DUP3 MSTORE PUSH1 0x20 DUP3 ADD SWAP1 POP SWAP3 SWAP2 POP POP JUMP JUMPDEST PUSH1 0x0 JUMPDEST DUP4 DUP2 LT ISZERO PUSH2 0x1A9 JUMPI DUP1 DUP3 ADD MLOAD DUP2 DUP5 ADD MSTORE PUSH1 0x20 DUP2 ADD SWAP1 POP PUSH2 0x18E JUMP JUMPDEST PUSH1 0x0 DUP5 DUP5 ADD MSTORE POP POP POP POP JUMP JUMPDEST PUSH1 0x0 PUSH1 0x1F NOT PUSH1 0x1F DUP4 ADD AND SWAP1 POP SWAP2 SWAP1 POP JUMP JUMPDEST PUSH1 0x0 PUSH2 0x1D1 DUP3 PUSH2 0x16F JUMP JUMPDEST PUSH2 0x1DB DUP2 DUP6 PUSH2 0x17A JUMP JUMPDEST SWAP4 POP PUSH2 0x1EB DUP2 DUP6 PUSH1 0x20 DUP7 ADD PUSH2 0x18B JUMP JUMPDEST PUSH2 0x1F4 DUP2 PUSH2 0x1B5 JUMP JUMPDEST DUP5 ADD SWAP2 POP POP SWAP3 SWAP2 POP POP JUMP JUMPDEST PUSH1 0x0 PUSH1 0x20 DUP3 ADD SWAP1 POP DUP2 DUP2 SUB PUSH1 0x0 DUP4 ADD MSTORE PUSH2 0x219 DUP2 DUP5 PUSH2 0x1C6 JUMP JUMPDEST SWAP1 POP SWAP3 SWAP2 POP POP JUMP INVALID LOG2 PUSH5 0x6970667358 0x22 SLT KECCAK256 LOG1 0xE9 0xC LOG0 SWAP16 0xEF SDIV DUP1 0xB9 REVERT LOG1 PREVRANDAO 0xC7 0xCD SELFDESTRUCT PUSH27 0x4EAADD2D82FDE96683CB70389190C8D64736F6C63430008130033 "},"methodIdentifiers":{"sayHello()":"ef5fb05b","sayHelloFromChild()":"82a5ab80"}}}}}