{"contracts/fullSchoolSystem.sol":{"Parent_f":{"abi":[{"inputs":[],"name":"externalFunction","outputs":[{"internalType":"string","name":"","type":"string"}],"stateMutability":"pure","type":"function"}],"evm":{"bytecode":{"linkReferences":{},"object":"608060405234801561001057600080fd5b506101b2806100206000396000f3fe608060405234801561001057600080fd5b506004361061002b5760003560e01c80633a32b54914610030575b600080fd5b61003861004e565b604051610045919061015a565b60405180910390f35b6060610064670648524c8944ceac60c01b6100c7565b61007867957cb70307bd2fc260c01b6100c7565b61008c67452673f9e2a52bc760c01b6100c7565b6040518060400160405280601c81526020017f43616c6c65642066726f6d20616e6f7468657220636f6e747261637400000000815250905090565b50565b600081519050919050565b600082825260208201905092915050565b60005b838110156101045780820151818401526020810190506100e9565b60008484015250505050565b6000601f19601f8301169050919050565b600061012c826100ca565b61013681856100d5565b93506101468185602086016100e6565b61014f81610110565b840191505092915050565b600060208201905081810360008301526101748184610121565b90509291505056fea2646970667358221220d2631cd529732633e8fb388b319212453c7dbe8c494adaec6431b7923685e90064736f6c63430008130033","opcodes":"PUSH1 0x80 PUSH1 0x40 MSTORE CALLVALUE DUP1 ISZERO PUSH2 0x10 JUMPI PUSH1 0x0 DUP1 REVERT JUMPDEST POP PUSH2 0x1B2 DUP1 PUSH2 0x20 PUSH1 0x0 CODECOPY PUSH1 0x0 RETURN INVALID PUSH1 0x80 PUSH1 0x40 MSTORE CALLVALUE DUP1 ISZERO PUSH2 0x10 JUMPI PUSH1 0x0 DUP1 REVERT JUMPDEST POP PUSH1 0x4 CALLDATASIZE LT PUSH2 0x2B JUMPI PUSH1 0x0 CALLDATALOAD PUSH1 0xE0 SHR DUP1 PUSH4 0x3A32B549 EQ PUSH2 0x30 JUMPI JUMPDEST PUSH1 0x0 DUP1 REVERT JUMPDEST PUSH2 0x38 PUSH2 0x4E JUMP JUMPDEST PUSH1 0x40 MLOAD PUSH2 0x45 SWAP2 SWAP1 PUSH2 0x15A JUMP JUMPDEST PUSH1 0x40 MLOAD DUP1 SWAP2 SUB SWAP1 RETURN JUMPDEST PUSH1 0x60 PUSH2 0x64 PUSH8 0x648524C8944CEAC PUSH1 0xC0 SHL PUSH2 0xC7 JUMP JUMPDEST PUSH2 0x78 PUSH8 0x957CB70307BD2FC2 PUSH1 0xC0 SHL PUSH2 0xC7 JUMP JUMPDEST PUSH2 0x8C PUSH8 0x452673F9E2A52BC7 PUSH1 0xC0 SHL PUSH2 0xC7 JUMP JUMPDEST PUSH1 0x40 MLOAD DUP1 PUSH1 0x40 ADD PUSH1 0x40 MSTORE DUP1 PUSH1 0x1C DUP2 MSTORE PUSH1 0x20 ADD PUSH32 0x43616C6C65642066726F6D20616E6F7468657220636F6E747261637400000000 DUP2 MSTORE POP SWAP1 POP SWAP1 JUMP JUMPDEST POP JUMP JUMPDEST PUSH1 0x0 DUP2 MLOAD SWAP1 POP SWAP2 SWAP1 POP JUMP JUMPDEST PUSH1 0x0 DUP3 DUP3 MSTORE PUSH1 0x20 DUP3 ADD SWAP1 POP SWAP3 SWAP2 POP POP JUMP JUMPDEST PUSH1 0x0 JUMPDEST DUP4 DUP2 LT ISZERO PUSH2 0x104 JUMPI DUP1 DUP3 ADD MLOAD DUP2 DUP5 ADD MSTORE PUSH1 0x20 DUP2 ADD SWAP1 POP PUSH2 0xE9 JUMP JUMPDEST PUSH1 0x0 DUP5 DUP5 ADD MSTORE POP POP POP POP JUMP JUMPDEST PUSH1 0x0 PUSH1 0x1F NOT PUSH1 0x1F DUP4 ADD AND SWAP1 POP SWAP2 SWAP1 POP JUMP JUMPDEST PUSH1 0x0 PUSH2 0x12C DUP3 PUSH2 0xCA JUMP JUMPDEST PUSH2 0x136 DUP2 DUP6 PUSH2 0xD5 JUMP JUMPDEST SWAP4 POP PUSH2 0x146 DUP2 DUP6 PUSH1 0x20 DUP7 ADD PUSH2 0xE6 JUMP JUMPDEST PUSH2 0x14F DUP2 PUSH2 0x110 JUMP JUMPDEST DUP5 ADD SWAP2 POP POP SWAP3 SWAP2 POP POP JUMP JUMPDEST PUSH1 0x0 PUSH1 0x20 DUP3 ADD SWAP1 POP DUP2 DUP2 SUB PUSH1 0x0 DUP4 ADD MSTORE PUSH2 0x174 DUP2 DUP5 PUSH2 0x121 JUMP JUMPDEST SWAP1 POP SWAP3 SWAP2 POP POP JUMP INVALID LOG2 PUSH5 0x6970667358 0x22 SLT KECCAK256 0xD2 PUSH4 0x1CD52973 0x26 CALLER 0xE8 0xFB CODESIZE DUP12 BALANCE SWAP3 SLT GASLIMIT EXTCODECOPY PUSH30 0xBE8C494ADAEC6431B7923685E90064736F6C634300081300330000000000 "},"methodIdentifiers":{"externalFunction()":"3a32b549"}}}}}