{"contracts/fullSchoolSystem.sol":{"AdminControl":{"abi":[{"inputs":[],"stateMutability":"nonpayable","type":"constructor"},{"inputs":[],"name":"admin","outputs":[{"internalType":"address","name":"","type":"address"}],"stateMutability":"view","type":"function"},{"inputs":[{"internalType":"address","name":"_newAdmin","type":"address"}],"name":"changeAdmin","outputs":[],"stateMutability":"nonpayable","type":"function"},{"inputs":[],"name":"getAdmin","outputs":[{"internalType":"address","name":"","type":"address"}],"stateMutability":"view","type":"function"}],"evm":{"bytecode":{"linkReferences":{},"object":"608060405234801561001057600080fd5b5061002b6725efe1d200e708c960c01b61008a60201b60201c565b610045677d4d915b6ea4466f60c01b61008a60201b60201c565b336000806101000a81548173ffffffffffffffffffffffffffffffffffffffff021916908373ffffffffffffffffffffffffffffffffffffffff16021790555061008d565b50565b61042f8061009c6000396000f3fe608060405234801561001057600080fd5b50600436106100415760003560e01c80636e9960c3146100465780638f28397014610064578063f851a44014610080575b600080fd5b61004e61009e565b60405161005b9190610303565b60405180910390f35b61007e6004803603810190610079919061034f565b610102565b005b61008861029b565b6040516100959190610303565b60405180910390f35b60006100b4670a79819ec8cb1d6f60c01b6102bf565b6100c867cd7ab2e19926105160c01b6102bf565b6100dc67fa6b175c909c1a5c60c01b6102bf565b60008054906101000a900473ffffffffffffffffffffffffffffffffffffffff16905090565b6101166746693fd4e3857b2e60c01b6102bf565b61012a67a96cba1b9730514460c01b6102bf565b61013e673f4a1d3a3c25c94360c01b6102bf565b61015267fefdca872894016260c01b6102bf565b61016667339ef68edd95783860c01b6102bf565b60008054906101000a900473ffffffffffffffffffffffffffffffffffffffff1673ffffffffffffffffffffffffffffffffffffffff163373ffffffffffffffffffffffffffffffffffffffff16146101f4576040517f08c379a00000000000000000000000000000000000000000000000000000000081526004016101eb906103d9565b60405180910390fd5b6102086705bca21fb069d74e60c01b6102bf565b61021c670cf04a34bdd58b3060c01b6102bf565b61023067e8059616071a7bf860c01b6102bf565b610244671820dbc9fcac9de160c01b6102bf565b61025867baecfe2810745d0260c01b6102bf565b806000806101000a81548173ffffffffffffffffffffffffffffffffffffffff021916908373ffffffffffffffffffffffffffffffffffffffff16021790555050565b60008054906101000a900473ffffffffffffffffffffffffffffffffffffffff1681565b50565b600073ffffffffffffffffffffffffffffffffffffffff82169050919050565b60006102ed826102c2565b9050919050565b6102fd816102e2565b82525050565b600060208201905061031860008301846102f4565b92915050565b600080fd5b61032c816102e2565b811461033757600080fd5b50565b60008135905061034981610323565b92915050565b6000602082840312156103655761036461031e565b5b60006103738482850161033a565b91505092915050565b600082825260208201905092915050565b7f4e6f742061646d696e0000000000000000000000000000000000000000000000600082015250565b60006103c360098361037c565b91506103ce8261038d565b602082019050919050565b600060208201905081810360008301526103f2816103b6565b905091905056fea2646970667358221220821eb5a1e2a9cfd9ad55b4e601c2e269245eef7244dc7f2d5b024b8809fbbd7c64736f6c63430008130033","opcodes":"PUSH1 0x80 PUSH1 0x40 MSTORE CALLVALUE DUP1 ISZERO PUSH2 0x10 JUMPI PUSH1 0x0 DUP1 REVERT JUMPDEST POP PUSH2 0x2B PUSH8 0x25EFE1D200E708C9 PUSH1 0xC0 SHL PUSH2 0x8A PUSH1 0x20 SHL PUSH1 0x20 SHR JUMP JUMPDEST PUSH2 0x45 PUSH8 0x7D4D915B6EA4466F PUSH1 0xC0 SHL PUSH2 0x8A PUSH1 0x20 SHL PUSH1 0x20 SHR JUMP JUMPDEST CALLER PUSH1 0x0 DUP1 PUSH2 0x100 EXP DUP2 SLOAD DUP2 PUSH20 0xFFFFFFFFFFFFFFFFFFFFFFFFFFFFFFFFFFFFFFFF MUL NOT AND SWAP1 DUP4 PUSH20 0xFFFFFFFFFFFFFFFFFFFFFFFFFFFFFFFFFFFFFFFF AND MUL OR SWAP1 SSTORE POP PUSH2 0x8D JUMP JUMPDEST POP JUMP JUMPDEST PUSH2 0x42F DUP1 PUSH2 0x9C PUSH1 0x0 CODECOPY PUSH1 0x0 RETURN INVALID PUSH1 0x80 PUSH1 0x40 MSTORE CALLVALUE DUP1 ISZERO PUSH2 0x10 JUMPI PUSH1 0x0 DUP1 REVERT JUMPDEST POP PUSH1 0x4 CALLDATASIZE LT PUSH2 0x41 JUMPI PUSH1 0x0 CALLDATALOAD PUSH1 0xE0 SHR DUP1 PUSH4 0x6E9960C3 EQ PUSH2 0x46 JUMPI DUP1 PUSH4 0x8F283970 EQ PUSH2 0x64 JUMPI DUP1 PUSH4 0xF851A440 EQ PUSH2 0x80 JUMPI JUMPDEST PUSH1 0x0 DUP1 REVERT JUMPDEST PUSH2 0x4E PUSH2 0x9E JUMP JUMPDEST PUSH1 0x40 MLOAD PUSH2 0x5B SWAP2 SWAP1 PUSH2 0x303 JUMP JUMPDEST PUSH1 0x40 MLOAD DUP1 SWAP2 SUB SWAP1 RETURN JUMPDEST PUSH2 0x7E PUSH1 0x4 DUP1 CALLDATASIZE SUB DUP2 ADD SWAP1 PUSH2 0x79 SWAP2 SWAP1 PUSH2 0x34F JUMP JUMPDEST PUSH2 0x102 JUMP JUMPDEST STOP JUMPDEST PUSH2 0x88 PUSH2 0x29B JUMP JUMPDEST PUSH1 0x40 MLOAD PUSH2 0x95 SWAP2 SWAP1 PUSH2 0x303 JUMP JUMPDEST PUSH1 0x40 MLOAD DUP1 SWAP2 SUB SWAP1 RETURN JUMPDEST PUSH1 0x0 PUSH2 0xB4 PUSH8 0xA79819EC8CB1D6F PUSH1 0xC0 SHL PUSH2 0x2BF JUMP JUMPDEST PUSH2 0xC8 PUSH8 0xCD7AB2E199261051 PUSH1 0xC0 SHL PUSH2 0x2BF JUMP JUMPDEST PUSH2 0xDC PUSH8 0xFA6B175C909C1A5C PUSH1 0xC0 SHL PUSH2 0x2BF JUMP JUMPDEST PUSH1 0x0 DUP1 SLOAD SWAP1 PUSH2 0x100 EXP SWAP1 DIV PUSH20 0xFFFFFFFFFFFFFFFFFFFFFFFFFFFFFFFFFFFFFFFF AND SWAP1 POP SWAP1 JUMP JUMPDEST PUSH2 0x116 PUSH8 0x46693FD4E3857B2E PUSH1 0xC0 SHL PUSH2 0x2BF JUMP JUMPDEST PUSH2 0x12A PUSH8 0xA96CBA1B97305144 PUSH1 0xC0 SHL PUSH2 0x2BF JUMP JUMPDEST PUSH2 0x13E PUSH8 0x3F4A1D3A3C25C943 PUSH1 0xC0 SHL PUSH2 0x2BF JUMP JUMPDEST PUSH2 0x152 PUSH8 0xFEFDCA8728940162 PUSH1 0xC0 SHL PUSH2 0x2BF JUMP JUMPDEST PUSH2 0x166 PUSH8 0x339EF68EDD957838 PUSH1 0xC0 SHL PUSH2 0x2BF JUMP JUMPDEST PUSH1 0x0 DUP1 SLOAD SWAP1 PUSH2 0x100 EXP SWAP1 DIV PUSH20 0xFFFFFFFFFFFFFFFFFFFFFFFFFFFFFFFFFFFFFFFF AND PUSH20 0xFFFFFFFFFFFFFFFFFFFFFFFFFFFFFFFFFFFFFFFF AND CALLER PUSH20 0xFFFFFFFFFFFFFFFFFFFFFFFFFFFFFFFFFFFFFFFF AND EQ PUSH2 0x1F4 JUMPI PUSH1 0x40 MLOAD PUSH32 0x8C379A000000000000000000000000000000000000000000000000000000000 DUP2 MSTORE PUSH1 0x4 ADD PUSH2 0x1EB SWAP1 PUSH2 0x3D9 JUMP JUMPDEST PUSH1 0x40 MLOAD DUP1 SWAP2 SUB SWAP1 REVERT JUMPDEST PUSH2 0x208 PUSH8 0x5BCA21FB069D74E PUSH1 0xC0 SHL PUSH2 0x2BF JUMP JUMPDEST PUSH2 0x21C PUSH8 0xCF04A34BDD58B30 PUSH1 0xC0 SHL PUSH2 0x2BF JUMP JUMPDEST PUSH2 0x230 PUSH8 0xE8059616071A7BF8 PUSH1 0xC0 SHL PUSH2 0x2BF JUMP JUMPDEST PUSH2 0x244 PUSH8 0x1820DBC9FCAC9DE1 PUSH1 0xC0 SHL PUSH2 0x2BF JUMP JUMPDEST PUSH2 0x258 PUSH8 0xBAECFE2810745D02 PUSH1 0xC0 SHL PUSH2 0x2BF JUMP JUMPDEST DUP1 PUSH1 0x0 DUP1 PUSH2 0x100 EXP DUP2 SLOAD DUP2 PUSH20 0xFFFFFFFFFFFFFFFFFFFFFFFFFFFFFFFFFFFFFFFF MUL NOT AND SWAP1 DUP4 PUSH20 0xFFFFFFFFFFFFFFFFFFFFFFFFFFFFFFFFFFFFFFFF AND MUL OR SWAP1 SSTORE POP POP JUMP JUMPDEST PUSH1 0x0 DUP1 SLOAD SWAP1 PUSH2 0x100 EXP SWAP1 DIV PUSH20 0xFFFFFFFFFFFFFFFFFFFFFFFFFFFFFFFFFFFFFFFF AND DUP2 JUMP JUMPDEST POP JUMP JUMPDEST PUSH1 0x0 PUSH20 0xFFFFFFFFFFFFFFFFFFFFFFFFFFFFFFFFFFFFFFFF DUP3 AND SWAP1 POP SWAP2 SWAP1 POP JUMP JUMPDEST PUSH1 0x0 PUSH2 0x2ED DUP3 PUSH2 0x2C2 JUMP JUMPDEST SWAP1 POP SWAP2 SWAP1 POP JUMP JUMPDEST PUSH2 0x2FD DUP2 PUSH2 0x2E2 JUMP JUMPDEST DUP3 MSTORE POP POP JUMP JUMPDEST PUSH1 0x0 PUSH1 0x20 DUP3 ADD SWAP1 POP PUSH2 0x318 PUSH1 0x0 DUP4 ADD DUP5 PUSH2 0x2F4 JUMP JUMPDEST SWAP3 SWAP2 POP POP JUMP JUMPDEST PUSH1 0x0 DUP1 REVERT JUMPDEST PUSH2 0x32C DUP2 PUSH2 0x2E2 JUMP JUMPDEST DUP2 EQ PUSH2 0x337 JUMPI PUSH1 0x0 DUP1 REVERT JUMPDEST POP JUMP JUMPDEST PUSH1 0x0 DUP2 CALLDATALOAD SWAP1 POP PUSH2 0x349 DUP2 PUSH2 0x323 JUMP JUMPDEST SWAP3 SWAP2 POP POP JUMP JUMPDEST PUSH1 0x0 PUSH1 0x20 DUP3 DUP5 SUB SLT ISZERO PUSH2 0x365 JUMPI PUSH2 0x364 PUSH2 0x31E JUMP JUMPDEST JUMPDEST PUSH1 0x0 PUSH2 0x373 DUP5 DUP3 DUP6 ADD PUSH2 0x33A JUMP JUMPDEST SWAP2 POP POP SWAP3 SWAP2 POP POP JUMP JUMPDEST PUSH1 0x0 DUP3 DUP3 MSTORE PUSH1 0x20 DUP3 ADD SWAP1 POP SWAP3 SWAP2 POP POP JUMP JUMPDEST PUSH32 0x4E6F742061646D696E0000000000000000000000000000000000000000000000 PUSH1 0x0 DUP3 ADD MSTORE POP JUMP JUMPDEST PUSH1 0x0 PUSH2 0x3C3 PUSH1 0x9 DUP4 PUSH2 0x37C JUMP JUMPDEST SWAP2 POP PUSH2 0x3CE DUP3 PUSH2 0x38D JUMP JUMPDEST PUSH1 0x20 DUP3 ADD SWAP1 POP SWAP2 SWAP1 POP JUMP JUMPDEST PUSH1 0x0 PUSH1 0x20 DUP3 ADD SWAP1 POP DUP2 DUP2 SUB PUSH1 0x0 DUP4 ADD MSTORE PUSH2 0x3F2 DUP2 PUSH2 0x3B6 JUMP JUMPDEST SWAP1 POP SWAP2 SWAP1 POP JUMP INVALID LOG2 PUSH5 0x6970667358 0x22 SLT KECCAK256 DUP3 0x1E 0xB5 LOG1 0xE2 0xA9 0xCF 0xD9 0xAD SSTORE 0xB4 0xE6 ADD 0xC2 0xE2 PUSH10 0x245EEF7244DC7F2D5B02 0x4B DUP9 MULMOD 0xFB 0xBD PUSH29 0x64736F6C63430008130033000000000000000000000000000000000000 "},"methodIdentifiers":{"admin()":"f851a440","changeAdmin(address)":"8f283970","getAdmin()":"6e9960c3"}}}}}