{"contracts/fullSchoolSystem.sol":{"FullSchoolSystem":{"abi":[{"inputs":[{"internalType":"string","name":"_schoolName","type":"string"}],"stateMutability":"nonpayable","type":"constructor"},{"inputs":[{"internalType":"uint256","name":"_id","type":"uint256"},{"internalType":"string","name":"_name","type":"string"},{"internalType":"uint256","name":"_mathGrade","type":"uint256"},{"internalType":"uint256","name":"_scienceGrade","type":"uint256"}],"name":"addStudent","outputs":[],"stateMutability":"nonpayable","type":"function"},{"inputs":[],"name":"admin","outputs":[{"internalType":"address","name":"","type":"address"}],"stateMutability":"view","type":"function"},{"inputs":[{"internalType":"address","name":"_newAdmin","type":"address"}],"name":"changeAdmin","outputs":[],"stateMutability":"nonpayable","type":"function"},{"inputs":[],"name":"getAdmin","outputs":[{"internalType":"address","name":"","type":"address"}],"stateMutability":"view","type":"function"},{"inputs":[{"internalType":"uint256","name":"_id","type":"uint256"}],"name":"getFullDetails","outputs":[{"internalType":"string","name":"","type":"string"},{"internalType":"uint256","name":"","type":"uint256"},{"internalType":"uint256","name":"","type":"uint256"},{"internalType":"string","name":"","type":"string"},{"internalType":"address","name":"","type":"address"}],"stateMutability":"view","type":"function"},{"inputs":[],"name":"getSchoolName","outputs":[{"internalType":"string","name":"","type":"string"}],"stateMutability":"view","type":"function"},{"inputs":[{"internalType":"uint256","name":"_id","type":"uint256"}],"name":"getStudent","outputs":[{"internalType":"string","name":"","type":"string"},{"internalType":"uint256","name":"","type":"uint256"},{"internalType":"uint256","name":"","type":"uint256"}],"stateMutability":"view","type":"function"},{"inputs":[],"name":"schoolName","outputs":[{"internalType":"string","name":"","type":"string"}],"stateMutability":"view","type":"function"},{"inputs":[{"internalType":"uint256","name":"","type":"uint256"}],"name":"students","outputs":[{"internalType":"string","name":"name","type":"string"},{"internalType":"uint256","name":"mathGrade","type":"uint256"},{"internalType":"uint256","name":"scienceGrade","type":"uint256"}],"stateMutability":"view","type":"function"}],"evm":{"bytecode":{"linkReferences":{},"object":"60806040523480156200001157600080fd5b50604051620016a0380380620016a08339818101604052810190620000379190620002dc565b808062000055672aaef77368dbd2e160c01b6200013d60201b60201c565b620000716771ea5fa6ae1f2fe560c01b6200013d60201b60201c565b806000908162000082919062000578565b5050620000a0677b369c12fc29db4860c01b6200014060201b60201c565b50620000bd6725efe1d200e708c960c01b6200014360201b60201c565b620000d9677d4d915b6ea4466f60c01b6200014360201b60201c565b33600260006101000a81548173ffffffffffffffffffffffffffffffffffffffff021916908373ffffffffffffffffffffffffffffffffffffffff16021790555062000136678648ca717e0e43ee60c01b6200014660201b60201c565b506200065f565b50565b50565b50565b50565b6000604051905090565b600080fd5b600080fd5b600080fd5b600080fd5b6000601f19601f8301169050919050565b7f4e487b7100000000000000000000000000000000000000000000000000000000600052604160045260246000fd5b620001b28262000167565b810181811067ffffffffffffffff82111715620001d457620001d362000178565b5b80604052505050565b6000620001e962000149565b9050620001f78282620001a7565b919050565b600067ffffffffffffffff8211156200021a576200021962000178565b5b620002258262000167565b9050602081019050919050565b60005b838110156200025257808201518184015260208101905062000235565b60008484015250505050565b6000620002756200026f84620001fc565b620001dd565b90508281526020810184848401111562000294576200029362000162565b5b620002a184828562000232565b509392505050565b600082601f830112620002c157620002c06200015d565b5b8151620002d38482602086016200025e565b91505092915050565b600060208284031215620002f557620002f462000153565b5b600082015167ffffffffffffffff81111562000316576200031562000158565b5b6200032484828501620002a9565b91505092915050565b600081519050919050565b7f4e487b7100000000000000000000000000000000000000000000000000000000600052602260045260246000fd5b600060028204905060018216806200038057607f821691505b60208210810362000396576200039562000338565b5b50919050565b60008190508160005260206000209050919050565b60006020601f8301049050919050565b600082821b905092915050565b600060088302620004007fffffffffffffffffffffffffffffffffffffffffffffffffffffffffffffffff82620003c1565b6200040c8683620003c1565b95508019841693508086168417925050509392505050565b6000819050919050565b6000819050919050565b600062000459620004536200044d8462000424565b6200042e565b62000424565b9050919050565b6000819050919050565b620004758362000438565b6200048d620004848262000460565b848454620003ce565b825550505050565b600090565b620004a462000495565b620004b18184846200046a565b505050565b5b81811015620004d957620004cd6000826200049a565b600181019050620004b7565b5050565b601f8211156200052857620004f2816200039c565b620004fd84620003b1565b810160208510156200050d578190505b620005256200051c85620003b1565b830182620004b6565b50505b505050565b600082821c905092915050565b60006200054d600019846008026200052d565b1980831691505092915050565b60006200056883836200053a565b9150826002028217905092915050565b62000583826200032d565b67ffffffffffffffff8111156200059f576200059e62000178565b5b620005ab825462000367565b620005b8828285620004dd565b600060209050601f831160018114620005f05760008415620005db578287015190505b620005e785826200055a565b86555062000657565b601f19841662000600866200039c565b60005b828110156200062a5784890151825560018201915060208501945060208101905062000603565b868310156200064a578489015162000646601f8916826200053a565b8355505b6001600288020188555050505b505050505050565b611031806200066f6000396000f3fe608060405234801561001057600080fd5b50600436106100a35760003560e01c80638f28397011610076578063b1d704791161005b578063b1d7047914610198578063d2619fe0146101b4578063f851a440146101d2576100a3565b80638f28397014610148578063a5f8e8ce14610164576100a3565b806306ead22e146100a85780634fc555c3146100da578063642f9163146100f85780636e9960c31461012a575b600080fd5b6100c260048036038101906100bd9190610953565b6101f0565b6040516100d193929190610a1f565b60405180910390f35b6100e26102a2565b6040516100ef9190610a5d565b60405180910390f35b610112600480360381019061010d9190610953565b610370565b60405161012193929190610a1f565b60405180910390f35b6101326104be565b60405161013f9190610ac0565b60405180910390f35b610162600480360381019061015d9190610b07565b610524565b005b61017e60048036038101906101799190610953565b6106c0565b60405161018f959493929190610b34565b60405180910390f35b6101b260048036038101906101ad9190610bfa565b610785565b005b6101bc610853565b6040516101c99190610a5d565b60405180910390f35b6101da6108e1565b6040516101e79190610ac0565b60405180910390f35b600160205280600052604060002060009150905080600001805461021390610cb1565b80601f016020809104026020016040519081016040528092919081815260200182805461023f90610cb1565b801561028c5780601f106102615761010080835404028352916020019161028c565b820191906000526020600020905b81548152906001019060200180831161026f57829003601f168201915b5050505050908060010154908060020154905083565b60606102b867127769fca790449b60c01b610907565b6102cc676e658c4eecf860f460c01b610907565b6102e067419cf49ab341d4c660c01b610907565b600080546102ed90610cb1565b80601f016020809104026020016040519081016040528092919081815260200182805461031990610cb1565b80156103665780601f1061033b57610100808354040283529160200191610366565b820191906000526020600020905b81548152906001019060200180831161034957829003601f168201915b5050505050905090565b6060600080610389677ef66ade44a2569460c01b61090a565b61039d67a5e5d5dba1bca57660c01b61090a565b6103b167f3864a025938409d60c01b61090a565b6000600160008681526020019081526020016000206040518060600160405290816000820180546103e190610cb1565b80601f016020809104026020016040519081016040528092919081815260200182805461040d90610cb1565b801561045a5780601f1061042f5761010080835404028352916020019161045a565b820191906000526020600020905b81548152906001019060200180831161043d57829003601f168201915b5050505050815260200160018201548152602001600282015481525050905061048d67e44ce056b2c82f3b60c01b61090a565b6104a167f0f46474ad0f079560c01b61090a565b806000015181602001518260400151935093509350509193909250565b60006104d4670a79819ec8cb1d6f60c01b61090d565b6104e867cd7ab2e19926105160c01b61090d565b6104fc67fa6b175c909c1a5c60c01b61090d565b600260009054906101000a900473ffffffffffffffffffffffffffffffffffffffff16905090565b6105386746693fd4e3857b2e60c01b61090d565b61054c67a96cba1b9730514460c01b61090d565b610560673f4a1d3a3c25c94360c01b61090d565b61057467fefdca872894016260c01b61090d565b61058867339ef68edd95783860c01b61090d565b600260009054906101000a900473ffffffffffffffffffffffffffffffffffffffff1673ffffffffffffffffffffffffffffffffffffffff163373ffffffffffffffffffffffffffffffffffffffff1614610618576040517f08c379a000000000000000000000000000000000000000000000000000000000815260040161060f90610d2e565b60405180910390fd5b61062c6705bca21fb069d74e60c01b61090d565b610640670cf04a34bdd58b3060c01b61090d565b61065467e8059616071a7bf860c01b61090d565b610668671820dbc9fcac9de160c01b61090d565b61067c67baecfe2810745d0260c01b61090d565b80600260006101000a81548173ffffffffffffffffffffffffffffffffffffffff021916908373ffffffffffffffffffffffffffffffffffffffff16021790555050565b6060600080606060006106dd670e74c89349fd005e60c01b610910565b6106f1671206ffdd1cb4865360c01b610910565b61070567ce71f957866d28ec60c01b610910565b600080600061071389610370565b92509250925061072d670fdf48eefbc2fdd360c01b610910565b61074167c96675b81c71689460c01b610910565b82828261074c6102a2565b600260009054906101000a900473ffffffffffffffffffffffffffffffffffffffff169750975097509750975050505091939590929450565b61079967c3db448844f9ff2a60c01b61090a565b6107ad672a7307f72255579660c01b61090a565b604051806060016040528085858080601f016020809104026020016040519081016040528093929190818152602001838380828437600081840152601f19601f820116905080830192505050505050508152602001838152602001828152506001600087815260200190815260200160002060008201518160000190816108349190610f29565b5060208201518160010155604082015181600201559050505050505050565b6000805461086090610cb1565b80601f016020809104026020016040519081016040528092919081815260200182805461088c90610cb1565b80156108d95780601f106108ae576101008083540402835291602001916108d9565b820191906000526020600020905b8154815290600101906020018083116108bc57829003601f168201915b505050505081565b600260009054906101000a900473ffffffffffffffffffffffffffffffffffffffff1681565b50565b50565b50565b50565b600080fd5b600080fd5b6000819050919050565b6109308161091d565b811461093b57600080fd5b50565b60008135905061094d81610927565b92915050565b60006020828403121561096957610968610913565b5b60006109778482850161093e565b91505092915050565b600081519050919050565b600082825260208201905092915050565b60005b838110156109ba57808201518184015260208101905061099f565b60008484015250505050565b6000601f19601f8301169050919050565b60006109e282610980565b6109ec818561098b565b93506109fc81856020860161099c565b610a05816109c6565b840191505092915050565b610a198161091d565b82525050565b60006060820190508181036000830152610a3981866109d7565b9050610a486020830185610a10565b610a556040830184610a10565b949350505050565b60006020820190508181036000830152610a7781846109d7565b905092915050565b600073ffffffffffffffffffffffffffffffffffffffff82169050919050565b6000610aaa82610a7f565b9050919050565b610aba81610a9f565b82525050565b6000602082019050610ad56000830184610ab1565b92915050565b610ae481610a9f565b8114610aef57600080fd5b50565b600081359050610b0181610adb565b92915050565b600060208284031215610b1d57610b1c610913565b5b6000610b2b84828501610af2565b91505092915050565b600060a0820190508181036000830152610b4e81886109d7565b9050610b5d6020830187610a10565b610b6a6040830186610a10565b8181036060830152610b7c81856109d7565b9050610b8b6080830184610ab1565b9695505050505050565b600080fd5b600080fd5b600080fd5b60008083601f840112610bba57610bb9610b95565b5b8235905067ffffffffffffffff811115610bd757610bd6610b9a565b5b602083019150836001820283011115610bf357610bf2610b9f565b5b9250929050565b600080600080600060808688031215610c1657610c15610913565b5b6000610c248882890161093e565b955050602086013567ffffffffffffffff811115610c4557610c44610918565b5b610c5188828901610ba4565b94509450506040610c648882890161093e565b9250506060610c758882890161093e565b9150509295509295909350565b7f4e487b7100000000000000000000000000000000000000000000000000000000600052602260045260246000fd5b60006002820490506001821680610cc957607f821691505b602082108103610cdc57610cdb610c82565b5b50919050565b7f4e6f742061646d696e0000000000000000000000000000000000000000000000600082015250565b6000610d1860098361098b565b9150610d2382610ce2565b602082019050919050565b60006020820190508181036000830152610d4781610d0b565b9050919050565b7f4e487b7100000000000000000000000000000000000000000000000000000000600052604160045260246000fd5b60008190508160005260206000209050919050565b60006020601f8301049050919050565b600082821b905092915050565b600060088302610ddf7fffffffffffffffffffffffffffffffffffffffffffffffffffffffffffffffff82610da2565b610de98683610da2565b95508019841693508086168417925050509392505050565b6000819050919050565b6000610e26610e21610e1c8461091d565b610e01565b61091d565b9050919050565b6000819050919050565b610e4083610e0b565b610e54610e4c82610e2d565b848454610daf565b825550505050565b600090565b610e69610e5c565b610e74818484610e37565b505050565b5b81811015610e9857610e8d600082610e61565b600181019050610e7a565b5050565b601f821115610edd57610eae81610d7d565b610eb784610d92565b81016020851015610ec6578190505b610eda610ed285610d92565b830182610e79565b50505b505050565b600082821c905092915050565b6000610f0060001984600802610ee2565b1980831691505092915050565b6000610f198383610eef565b9150826002028217905092915050565b610f3282610980565b67ffffffffffffffff811115610f4b57610f4a610d4e565b5b610f558254610cb1565b610f60828285610e9c565b600060209050601f831160018114610f935760008415610f81578287015190505b610f8b8582610f0d565b865550610ff3565b601f198416610fa186610d7d565b60005b82811015610fc957848901518255600182019150602085019450602081019050610fa4565b86831015610fe65784890151610fe2601f891682610eef565b8355505b6001600288020188555050505b50505050505056fea26469706673582212206e5593fd5abacbab312fb29928dea36bcefc34bfedb0b93ad0db5f44a770fecd64736f6c63430008130033","opcodes":"PUSH1 0x80 PUSH1 0x40 MSTORE CALLVALUE DUP1 ISZERO PUSH3 0x11 JUMPI PUSH1 0x0 DUP1 REVERT JUMPDEST POP PUSH1 0x40 MLOAD PUSH3 0x16A0 CODESIZE SUB DUP1 PUSH3 0x16A0 DUP4 CODECOPY DUP2 DUP2 ADD PUSH1 0x40 MSTORE DUP2 ADD SWAP1 PUSH3 0x37 SWAP2 SWAP1 PUSH3 0x2DC JUMP JUMPDEST DUP1 DUP1 PUSH3 0x55 PUSH8 0x2AAEF77368DBD2E1 PUSH1 0xC0 SHL PUSH3 0x13D PUSH1 0x20 SHL PUSH1 0x20 SHR JUMP JUMPDEST PUSH3 0x71 PUSH8 0x71EA5FA6AE1F2FE5 PUSH1 0xC0 SHL PUSH3 0x13D PUSH1 0x20 SHL PUSH1 0x20 SHR JUMP JUMPDEST DUP1 PUSH1 0x0 SWAP1 DUP2 PUSH3 0x82 SWAP2 SWAP1 PUSH3 0x578 JUMP JUMPDEST POP POP PUSH3 0xA0 PUSH8 0x7B369C12FC29DB48 PUSH1 0xC0 SHL PUSH3 0x140 PUSH1 0x20 SHL PUSH1 0x20 SHR JUMP JUMPDEST POP PUSH3 0xBD PUSH8 0x25EFE1D200E708C9 PUSH1 0xC0 SHL PUSH3 0x143 PUSH1 0x20 SHL PUSH1 0x20 SHR JUMP JUMPDEST PUSH3 0xD9 PUSH8 0x7D4D915B6EA4466F PUSH1 0xC0 SHL PUSH3 0x143 PUSH1 0x20 SHL PUSH1 0x20 SHR JUMP JUMPDEST CALLER PUSH1 0x2 PUSH1 0x0 PUSH2 0x100 EXP DUP2 SLOAD DUP2 PUSH20 0xFFFFFFFFFFFFFFFFFFFFFFFFFFFFFFFFFFFFFFFF MUL NOT AND SWAP1 DUP4 PUSH20 0xFFFFFFFFFFFFFFFFFFFFFFFFFFFFFFFFFFFFFFFF AND MUL OR SWAP1 SSTORE POP PUSH3 0x136 PUSH8 0x8648CA717E0E43EE PUSH1 0xC0 SHL PUSH3 0x146 PUSH1 0x20 SHL PUSH1 0x20 SHR JUMP JUMPDEST POP PUSH3 0x65F JUMP JUMPDEST POP JUMP JUMPDEST POP JUMP JUMPDEST POP JUMP JUMPDEST POP JUMP JUMPDEST PUSH1 0x0 PUSH1 0x40 MLOAD SWAP1 POP SWAP1 JUMP JUMPDEST PUSH1 0x0 DUP1 REVERT JUMPDEST PUSH1 0x0 DUP1 REVERT JUMPDEST PUSH1 0x0 DUP1 REVERT JUMPDEST PUSH1 0x0 DUP1 REVERT JUMPDEST PUSH1 0x0 PUSH1 0x1F NOT PUSH1 0x1F DUP4 ADD AND SWAP1 POP SWAP2 SWAP1 POP JUMP JUMPDEST PUSH32 0x4E487B7100000000000000000000000000000000000000000000000000000000 PUSH1 0x0 MSTORE PUSH1 0x41 PUSH1 0x4 MSTORE PUSH1 0x24 PUSH1 0x0 REVERT JUMPDEST PUSH3 0x1B2 DUP3 PUSH3 0x167 JUMP JUMPDEST DUP2 ADD DUP2 DUP2 LT PUSH8 0xFFFFFFFFFFFFFFFF DUP3 GT OR ISZERO PUSH3 0x1D4 JUMPI PUSH3 0x1D3 PUSH3 0x178 JUMP JUMPDEST JUMPDEST DUP1 PUSH1 0x40 MSTORE POP POP POP JUMP JUMPDEST PUSH1 0x0 PUSH3 0x1E9 PUSH3 0x149 JUMP JUMPDEST SWAP1 POP PUSH3 0x1F7 DUP3 DUP3 PUSH3 0x1A7 JUMP JUMPDEST SWAP2 SWAP1 POP JUMP JUMPDEST PUSH1 0x0 PUSH8 0xFFFFFFFFFFFFFFFF DUP3 GT ISZERO PUSH3 0x21A JUMPI PUSH3 0x219 PUSH3 0x178 JUMP JUMPDEST JUMPDEST PUSH3 0x225 DUP3 PUSH3 0x167 JUMP JUMPDEST SWAP1 POP PUSH1 0x20 DUP2 ADD SWAP1 POP SWAP2 SWAP1 POP JUMP JUMPDEST PUSH1 0x0 JUMPDEST DUP4 DUP2 LT ISZERO PUSH3 0x252 JUMPI DUP1 DUP3 ADD MLOAD DUP2 DUP5 ADD MSTORE PUSH1 0x20 DUP2 ADD SWAP1 POP PUSH3 0x235 JUMP JUMPDEST PUSH1 0x0 DUP5 DUP5 ADD MSTORE POP POP POP POP JUMP JUMPDEST PUSH1 0x0 PUSH3 0x275 PUSH3 0x26F DUP5 PUSH3 0x1FC JUMP JUMPDEST PUSH3 0x1DD JUMP JUMPDEST SWAP1 POP DUP3 DUP2 MSTORE PUSH1 0x20 DUP2 ADD DUP5 DUP5 DUP5 ADD GT ISZERO PUSH3 0x294 JUMPI PUSH3 0x293 PUSH3 0x162 JUMP JUMPDEST JUMPDEST PUSH3 0x2A1 DUP5 DUP3 DUP6 PUSH3 0x232 JUMP JUMPDEST POP SWAP4 SWAP3 POP POP POP JUMP JUMPDEST PUSH1 0x0 DUP3 PUSH1 0x1F DUP4 ADD SLT PUSH3 0x2C1 JUMPI PUSH3 0x2C0 PUSH3 0x15D JUMP JUMPDEST JUMPDEST DUP2 MLOAD PUSH3 0x2D3 DUP5 DUP3 PUSH1 0x20 DUP7 ADD PUSH3 0x25E JUMP JUMPDEST SWAP2 POP POP SWAP3 SWAP2 POP POP JUMP JUMPDEST PUSH1 0x0 PUSH1 0x20 DUP3 DUP5 SUB SLT ISZERO PUSH3 0x2F5 JUMPI PUSH3 0x2F4 PUSH3 0x153 JUMP JUMPDEST JUMPDEST PUSH1 0x0 DUP3 ADD MLOAD PUSH8 0xFFFFFFFFFFFFFFFF DUP2 GT ISZERO PUSH3 0x316 JUMPI PUSH3 0x315 PUSH3 0x158 JUMP JUMPDEST JUMPDEST PUSH3 0x324 DUP5 DUP3 DUP6 ADD PUSH3 0x2A9 JUMP JUMPDEST SWAP2 POP POP SWAP3 SWAP2 POP POP JUMP JUMPDEST PUSH1 0x0 DUP2 MLOAD SWAP1 POP SWAP2 SWAP1 POP JUMP JUMPDEST PUSH32 0x4E487B7100000000000000000000000000000000000000000000000000000000 PUSH1 0x0 MSTORE PUSH1 0x22 PUSH1 0x4 MSTORE PUSH1 0x24 PUSH1 0x0 REVERT JUMPDEST PUSH1 0x0 PUSH1 0x2 DUP3 DIV SWAP1 POP PUSH1 0x1 DUP3 AND DUP1 PUSH3 0x380 JUMPI PUSH1 0x7F DUP3 AND SWAP2 POP JUMPDEST PUSH1 0x20 DUP3 LT DUP2 SUB PUSH3 0x396 JUMPI PUSH3 0x395 PUSH3 0x338 JUMP JUMPDEST JUMPDEST POP SWAP2 SWAP1 POP JUMP JUMPDEST PUSH1 0x0 DUP2 SWAP1 POP DUP2 PUSH1 0x0 MSTORE PUSH1 0x20 PUSH1 0x0 KECCAK256 SWAP1 POP SWAP2 SWAP1 POP JUMP JUMPDEST PUSH1 0x0 PUSH1 0x20 PUSH1 0x1F DUP4 ADD DIV SWAP1 POP SWAP2 SWAP1 POP JUMP JUMPDEST PUSH1 0x0 DUP3 DUP3 SHL SWAP1 POP SWAP3 SWAP2 POP POP JUMP JUMPDEST PUSH1 0x0 PUSH1 0x8 DUP4 MUL PUSH3 0x400 PUSH32 0xFFFFFFFFFFFFFFFFFFFFFFFFFFFFFFFFFFFFFFFFFFFFFFFFFFFFFFFFFFFFFFFF DUP3 PUSH3 0x3C1 JUMP JUMPDEST PUSH3 0x40C DUP7 DUP4 PUSH3 0x3C1 JUMP JUMPDEST SWAP6 POP DUP1 NOT DUP5 AND SWAP4 POP DUP1 DUP7 AND DUP5 OR SWAP3 POP POP POP SWAP4 SWAP3 POP POP POP JUMP JUMPDEST PUSH1 0x0 DUP2 SWAP1 POP SWAP2 SWAP1 POP JUMP JUMPDEST PUSH1 0x0 DUP2 SWAP1 POP SWAP2 SWAP1 POP JUMP JUMPDEST PUSH1 0x0 PUSH3 0x459 PUSH3 0x453 PUSH3 0x44D DUP5 PUSH3 0x424 JUMP JUMPDEST PUSH3 0x42E JUMP JUMPDEST PUSH3 0x424 JUMP JUMPDEST SWAP1 POP SWAP2 SWAP1 POP JUMP JUMPDEST PUSH1 0x0 DUP2 SWAP1 POP SWAP2 SWAP1 POP JUMP JUMPDEST PUSH3 0x475 DUP4 PUSH3 0x438 JUMP JUMPDEST PUSH3 0x48D PUSH3 0x484 DUP3 PUSH3 0x460 JUMP JUMPDEST DUP5 DUP5 SLOAD PUSH3 0x3CE JUMP JUMPDEST DUP3 SSTORE POP POP POP POP JUMP JUMPDEST PUSH1 0x0 SWAP1 JUMP JUMPDEST PUSH3 0x4A4 PUSH3 0x495 JUMP JUMPDEST PUSH3 0x4B1 DUP2 DUP5 DUP5 PUSH3 0x46A JUMP JUMPDEST POP POP POP JUMP JUMPDEST JUMPDEST DUP2 DUP2 LT ISZERO PUSH3 0x4D9 JUMPI PUSH3 0x4CD PUSH1 0x0 DUP3 PUSH3 0x49A JUMP JUMPDEST PUSH1 0x1 DUP2 ADD SWAP1 POP PUSH3 0x4B7 JUMP JUMPDEST POP POP JUMP JUMPDEST PUSH1 0x1F DUP3 GT ISZERO PUSH3 0x528 JUMPI PUSH3 0x4F2 DUP2 PUSH3 0x39C JUMP JUMPDEST PUSH3 0x4FD DUP5 PUSH3 0x3B1 JUMP JUMPDEST DUP2 ADD PUSH1 0x20 DUP6 LT ISZERO PUSH3 0x50D JUMPI DUP2 SWAP1 POP JUMPDEST PUSH3 0x525 PUSH3 0x51C DUP6 PUSH3 0x3B1 JUMP JUMPDEST DUP4 ADD DUP3 PUSH3 0x4B6 JUMP JUMPDEST POP POP JUMPDEST POP POP POP JUMP JUMPDEST PUSH1 0x0 DUP3 DUP3 SHR SWAP1 POP SWAP3 SWAP2 POP POP JUMP JUMPDEST PUSH1 0x0 PUSH3 0x54D PUSH1 0x0 NOT DUP5 PUSH1 0x8 MUL PUSH3 0x52D JUMP JUMPDEST NOT DUP1 DUP4 AND SWAP2 POP POP SWAP3 SWAP2 POP POP JUMP JUMPDEST PUSH1 0x0 PUSH3 0x568 DUP4 DUP4 PUSH3 0x53A JUMP JUMPDEST SWAP2 POP DUP3 PUSH1 0x2 MUL DUP3 OR SWAP1 POP SWAP3 SWAP2 POP POP JUMP JUMPDEST PUSH3 0x583 DUP3 PUSH3 0x32D JUMP JUMPDEST PUSH8 0xFFFFFFFFFFFFFFFF DUP2 GT ISZERO PUSH3 0x59F JUMPI PUSH3 0x59E PUSH3 0x178 JUMP JUMPDEST JUMPDEST PUSH3 0x5AB DUP3 SLOAD PUSH3 0x367 JUMP JUMPDEST PUSH3 0x5B8 DUP3 DUP3 DUP6 PUSH3 0x4DD JUMP JUMPDEST PUSH1 0x0 PUSH1 0x20 SWAP1 POP PUSH1 0x1F DUP4 GT PUSH1 0x1 DUP2 EQ PUSH3 0x5F0 JUMPI PUSH1 0x0 DUP5 ISZERO PUSH3 0x5DB JUMPI DUP3 DUP8 ADD MLOAD SWAP1 POP JUMPDEST PUSH3 0x5E7 DUP6 DUP3 PUSH3 0x55A JUMP JUMPDEST DUP7 SSTORE POP PUSH3 0x657 JUMP JUMPDEST PUSH1 0x1F NOT DUP5 AND PUSH3 0x600 DUP7 PUSH3 0x39C JUMP JUMPDEST PUSH1 0x0 JUMPDEST DUP3 DUP2 LT ISZERO PUSH3 0x62A JUMPI DUP5 DUP10 ADD MLOAD DUP3 SSTORE PUSH1 0x1 DUP3 ADD SWAP2 POP PUSH1 0x20 DUP6 ADD SWAP5 POP PUSH1 0x20 DUP2 ADD SWAP1 POP PUSH3 0x603 JUMP JUMPDEST DUP7 DUP4 LT ISZERO PUSH3 0x64A JUMPI DUP5 DUP10 ADD MLOAD PUSH3 0x646 PUSH1 0x1F DUP10 AND DUP3 PUSH3 0x53A JUMP JUMPDEST DUP4 SSTORE POP JUMPDEST PUSH1 0x1 PUSH1 0x2 DUP9 MUL ADD DUP9 SSTORE POP POP POP JUMPDEST POP POP POP POP POP POP JUMP JUMPDEST PUSH2 0x1031 DUP1 PUSH3 0x66F PUSH1 0x0 CODECOPY PUSH1 0x0 RETURN INVALID PUSH1 0x80 PUSH1 0x40 MSTORE CALLVALUE DUP1 ISZERO PUSH2 0x10 JUMPI PUSH1 0x0 DUP1 REVERT JUMPDEST POP PUSH1 0x4 CALLDATASIZE LT PUSH2 0xA3 JUMPI PUSH1 0x0 CALLDATALOAD PUSH1 0xE0 SHR DUP1 PUSH4 0x8F283970 GT PUSH2 0x76 JUMPI DUP1 PUSH4 0xB1D70479 GT PUSH2 0x5B JUMPI DUP1 PUSH4 0xB1D70479 EQ PUSH2 0x198 JUMPI DUP1 PUSH4 0xD2619FE0 EQ PUSH2 0x1B4 JUMPI DUP1 PUSH4 0xF851A440 EQ PUSH2 0x1D2 JUMPI PUSH2 0xA3 JUMP JUMPDEST DUP1 PUSH4 0x8F283970 EQ PUSH2 0x148 JUMPI DUP1 PUSH4 0xA5F8E8CE EQ PUSH2 0x164 JUMPI PUSH2 0xA3 JUMP JUMPDEST DUP1 PUSH4 0x6EAD22E EQ PUSH2 0xA8 JUMPI DUP1 PUSH4 0x4FC555C3 EQ PUSH2 0xDA JUMPI DUP1 PUSH4 0x642F9163 EQ PUSH2 0xF8 JUMPI DUP1 PUSH4 0x6E9960C3 EQ PUSH2 0x12A JUMPI JUMPDEST PUSH1 0x0 DUP1 REVERT JUMPDEST PUSH2 0xC2 PUSH1 0x4 DUP1 CALLDATASIZE SUB DUP2 ADD SWAP1 PUSH2 0xBD SWAP2 SWAP1 PUSH2 0x953 JUMP JUMPDEST PUSH2 0x1F0 JUMP JUMPDEST PUSH1 0x40 MLOAD PUSH2 0xD1 SWAP4 SWAP3 SWAP2 SWAP1 PUSH2 0xA1F JUMP JUMPDEST PUSH1 0x40 MLOAD DUP1 SWAP2 SUB SWAP1 RETURN JUMPDEST PUSH2 0xE2 PUSH2 0x2A2 JUMP JUMPDEST PUSH1 0x40 MLOAD PUSH2 0xEF SWAP2 SWAP1 PUSH2 0xA5D JUMP JUMPDEST PUSH1 0x40 MLOAD DUP1 SWAP2 SUB SWAP1 RETURN JUMPDEST PUSH2 0x112 PUSH1 0x4 DUP1 CALLDATASIZE SUB DUP2 ADD SWAP1 PUSH2 0x10D SWAP2 SWAP1 PUSH2 0x953 JUMP JUMPDEST PUSH2 0x370 JUMP JUMPDEST PUSH1 0x40 MLOAD PUSH2 0x121 SWAP4 SWAP3 SWAP2 SWAP1 PUSH2 0xA1F JUMP JUMPDEST PUSH1 0x40 MLOAD DUP1 SWAP2 SUB SWAP1 RETURN JUMPDEST PUSH2 0x132 PUSH2 0x4BE JUMP JUMPDEST PUSH1 0x40 MLOAD PUSH2 0x13F SWAP2 SWAP1 PUSH2 0xAC0 JUMP JUMPDEST PUSH1 0x40 MLOAD DUP1 SWAP2 SUB SWAP1 RETURN JUMPDEST PUSH2 0x162 PUSH1 0x4 DUP1 CALLDATASIZE SUB DUP2 ADD SWAP1 PUSH2 0x15D SWAP2 SWAP1 PUSH2 0xB07 JUMP JUMPDEST PUSH2 0x524 JUMP JUMPDEST STOP JUMPDEST PUSH2 0x17E PUSH1 0x4 DUP1 CALLDATASIZE SUB DUP2 ADD SWAP1 PUSH2 0x179 SWAP2 SWAP1 PUSH2 0x953 JUMP JUMPDEST PUSH2 0x6C0 JUMP JUMPDEST PUSH1 0x40 MLOAD PUSH2 0x18F SWAP6 SWAP5 SWAP4 SWAP3 SWAP2 SWAP1 PUSH2 0xB34 JUMP JUMPDEST PUSH1 0x40 MLOAD DUP1 SWAP2 SUB SWAP1 RETURN JUMPDEST PUSH2 0x1B2 PUSH1 0x4 DUP1 CALLDATASIZE SUB DUP2 ADD SWAP1 PUSH2 0x1AD SWAP2 SWAP1 PUSH2 0xBFA JUMP JUMPDEST PUSH2 0x785 JUMP JUMPDEST STOP JUMPDEST PUSH2 0x1BC PUSH2 0x853 JUMP JUMPDEST PUSH1 0x40 MLOAD PUSH2 0x1C9 SWAP2 SWAP1 PUSH2 0xA5D JUMP JUMPDEST PUSH1 0x40 MLOAD DUP1 SWAP2 SUB SWAP1 RETURN JUMPDEST PUSH2 0x1DA PUSH2 0x8E1 JUMP JUMPDEST PUSH1 0x40 MLOAD PUSH2 0x1E7 SWAP2 SWAP1 PUSH2 0xAC0 JUMP JUMPDEST PUSH1 0x40 MLOAD DUP1 SWAP2 SUB SWAP1 RETURN JUMPDEST PUSH1 0x1 PUSH1 0x20 MSTORE DUP1 PUSH1 0x0 MSTORE PUSH1 0x40 PUSH1 0x0 KECCAK256 PUSH1 0x0 SWAP2 POP SWAP1 POP DUP1 PUSH1 0x0 ADD DUP1 SLOAD PUSH2 0x213 SWAP1 PUSH2 0xCB1 JUMP JUMPDEST DUP1 PUSH1 0x1F ADD PUSH1 0x20 DUP1 SWAP2 DIV MUL PUSH1 0x20 ADD PUSH1 0x40 MLOAD SWAP1 DUP2 ADD PUSH1 0x40 MSTORE DUP1 SWAP3 SWAP2 SWAP1 DUP2 DUP2 MSTORE PUSH1 0x20 ADD DUP3 DUP1 SLOAD PUSH2 0x23F SWAP1 PUSH2 0xCB1 JUMP JUMPDEST DUP1 ISZERO PUSH2 0x28C JUMPI DUP1 PUSH1 0x1F LT PUSH2 0x261 JUMPI PUSH2 0x100 DUP1 DUP4 SLOAD DIV MUL DUP4 MSTORE SWAP2 PUSH1 0x20 ADD SWAP2 PUSH2 0x28C JUMP JUMPDEST DUP3 ADD SWAP2 SWAP1 PUSH1 0x0 MSTORE PUSH1 0x20 PUSH1 0x0 KECCAK256 SWAP1 JUMPDEST DUP2 SLOAD DUP2 MSTORE SWAP1 PUSH1 0x1 ADD SWAP1 PUSH1 0x20 ADD DUP1 DUP4 GT PUSH2 0x26F JUMPI DUP3 SWAP1 SUB PUSH1 0x1F AND DUP3 ADD SWAP2 JUMPDEST POP POP POP POP POP SWAP1 DUP1 PUSH1 0x1 ADD SLOAD SWAP1 DUP1 PUSH1 0x2 ADD SLOAD SWAP1 POP DUP4 JUMP JUMPDEST PUSH1 0x60 PUSH2 0x2B8 PUSH8 0x127769FCA790449B PUSH1 0xC0 SHL PUSH2 0x907 JUMP JUMPDEST PUSH2 0x2CC PUSH8 0x6E658C4EECF860F4 PUSH1 0xC0 SHL PUSH2 0x907 JUMP JUMPDEST PUSH2 0x2E0 PUSH8 0x419CF49AB341D4C6 PUSH1 0xC0 SHL PUSH2 0x907 JUMP JUMPDEST PUSH1 0x0 DUP1 SLOAD PUSH2 0x2ED SWAP1 PUSH2 0xCB1 JUMP JUMPDEST DUP1 PUSH1 0x1F ADD PUSH1 0x20 DUP1 SWAP2 DIV MUL PUSH1 0x20 ADD PUSH1 0x40 MLOAD SWAP1 DUP2 ADD PUSH1 0x40 MSTORE DUP1 SWAP3 SWAP2 SWAP1 DUP2 DUP2 MSTORE PUSH1 0x20 ADD DUP3 DUP1 SLOAD PUSH2 0x319 SWAP1 PUSH2 0xCB1 JUMP JUMPDEST DUP1 ISZERO PUSH2 0x366 JUMPI DUP1 PUSH1 0x1F LT PUSH2 0x33B JUMPI PUSH2 0x100 DUP1 DUP4 SLOAD DIV MUL DUP4 MSTORE SWAP2 PUSH1 0x20 ADD SWAP2 PUSH2 0x366 JUMP JUMPDEST DUP3 ADD SWAP2 SWAP1 PUSH1 0x0 MSTORE PUSH1 0x20 PUSH1 0x0 KECCAK256 SWAP1 JUMPDEST DUP2 SLOAD DUP2 MSTORE SWAP1 PUSH1 0x1 ADD SWAP1 PUSH1 0x20 ADD DUP1 DUP4 GT PUSH2 0x349 JUMPI DUP3 SWAP1 SUB PUSH1 0x1F AND DUP3 ADD SWAP2 JUMPDEST POP POP POP POP POP SWAP1 POP SWAP1 JUMP JUMPDEST PUSH1 0x60 PUSH1 0x0 DUP1 PUSH2 0x389 PUSH8 0x7EF66ADE44A25694 PUSH1 0xC0 SHL PUSH2 0x90A JUMP JUMPDEST PUSH2 0x39D PUSH8 0xA5E5D5DBA1BCA576 PUSH1 0xC0 SHL PUSH2 0x90A JUMP JUMPDEST PUSH2 0x3B1 PUSH8 0xF3864A025938409D PUSH1 0xC0 SHL PUSH2 0x90A JUMP JUMPDEST PUSH1 0x0 PUSH1 0x1 PUSH1 0x0 DUP7 DUP2 MSTORE PUSH1 0x20 ADD SWAP1 DUP2 MSTORE PUSH1 0x20 ADD PUSH1 0x0 KECCAK256 PUSH1 0x40 MLOAD DUP1 PUSH1 0x60 ADD PUSH1 0x40 MSTORE SWAP1 DUP2 PUSH1 0x0 DUP3 ADD DUP1 SLOAD PUSH2 0x3E1 SWAP1 PUSH2 0xCB1 JUMP JUMPDEST DUP1 PUSH1 0x1F ADD PUSH1 0x20 DUP1 SWAP2 DIV MUL PUSH1 0x20 ADD PUSH1 0x40 MLOAD SWAP1 DUP2 ADD PUSH1 0x40 MSTORE DUP1 SWAP3 SWAP2 SWAP1 DUP2 DUP2 MSTORE PUSH1 0x20 ADD DUP3 DUP1 SLOAD PUSH2 0x40D SWAP1 PUSH2 0xCB1 JUMP JUMPDEST DUP1 ISZERO PUSH2 0x45A JUMPI DUP1 PUSH1 0x1F LT PUSH2 0x42F JUMPI PUSH2 0x100 DUP1 DUP4 SLOAD DIV MUL DUP4 MSTORE SWAP2 PUSH1 0x20 ADD SWAP2 PUSH2 0x45A JUMP JUMPDEST DUP3 ADD SWAP2 SWAP1 PUSH1 0x0 MSTORE PUSH1 0x20 PUSH1 0x0 KECCAK256 SWAP1 JUMPDEST DUP2 SLOAD DUP2 MSTORE SWAP1 PUSH1 0x1 ADD SWAP1 PUSH1 0x20 ADD DUP1 DUP4 GT PUSH2 0x43D JUMPI DUP3 SWAP1 SUB PUSH1 0x1F AND DUP3 ADD SWAP2 JUMPDEST POP POP POP POP POP DUP2 MSTORE PUSH1 0x20 ADD PUSH1 0x1 DUP3 ADD SLOAD DUP2 MSTORE PUSH1 0x20 ADD PUSH1 0x2 DUP3 ADD SLOAD DUP2 MSTORE POP POP SWAP1 POP PUSH2 0x48D PUSH8 0xE44CE056B2C82F3B PUSH1 0xC0 SHL PUSH2 0x90A JUMP JUMPDEST PUSH2 0x4A1 PUSH8 0xF0F46474AD0F0795 PUSH1 0xC0 SHL PUSH2 0x90A JUMP JUMPDEST DUP1 PUSH1 0x0 ADD MLOAD DUP2 PUSH1 0x20 ADD MLOAD DUP3 PUSH1 0x40 ADD MLOAD SWAP4 POP SWAP4 POP SWAP4 POP POP SWAP2 SWAP4 SWAP1 SWAP3 POP JUMP JUMPDEST PUSH1 0x0 PUSH2 0x4D4 PUSH8 0xA79819EC8CB1D6F PUSH1 0xC0 SHL PUSH2 0x90D JUMP JUMPDEST PUSH2 0x4E8 PUSH8 0xCD7AB2E199261051 PUSH1 0xC0 SHL PUSH2 0x90D JUMP JUMPDEST PUSH2 0x4FC PUSH8 0xFA6B175C909C1A5C PUSH1 0xC0 SHL PUSH2 0x90D JUMP JUMPDEST PUSH1 0x2 PUSH1 0x0 SWAP1 SLOAD SWAP1 PUSH2 0x100 EXP SWAP1 DIV PUSH20 0xFFFFFFFFFFFFFFFFFFFFFFFFFFFFFFFFFFFFFFFF AND SWAP1 POP SWAP1 JUMP JUMPDEST PUSH2 0x538 PUSH8 0x46693FD4E3857B2E PUSH1 0xC0 SHL PUSH2 0x90D JUMP JUMPDEST PUSH2 0x54C PUSH8 0xA96CBA1B97305144 PUSH1 0xC0 SHL PUSH2 0x90D JUMP JUMPDEST PUSH2 0x560 PUSH8 0x3F4A1D3A3C25C943 PUSH1 0xC0 SHL PUSH2 0x90D JUMP JUMPDEST PUSH2 0x574 PUSH8 0xFEFDCA8728940162 PUSH1 0xC0 SHL PUSH2 0x90D JUMP JUMPDEST PUSH2 0x588 PUSH8 0x339EF68EDD957838 PUSH1 0xC0 SHL PUSH2 0x90D JUMP JUMPDEST PUSH1 0x2 PUSH1 0x0 SWAP1 SLOAD SWAP1 PUSH2 0x100 EXP SWAP1 DIV PUSH20 0xFFFFFFFFFFFFFFFFFFFFFFFFFFFFFFFFFFFFFFFF AND PUSH20 0xFFFFFFFFFFFFFFFFFFFFFFFFFFFFFFFFFFFFFFFF AND CALLER PUSH20 0xFFFFFFFFFFFFFFFFFFFFFFFFFFFFFFFFFFFFFFFF AND EQ PUSH2 0x618 JUMPI PUSH1 0x40 MLOAD PUSH32 0x8C379A000000000000000000000000000000000000000000000000000000000 DUP2 MSTORE PUSH1 0x4 ADD PUSH2 0x60F SWAP1 PUSH2 0xD2E JUMP JUMPDEST PUSH1 0x40 MLOAD DUP1 SWAP2 SUB SWAP1 REVERT JUMPDEST PUSH2 0x62C PUSH8 0x5BCA21FB069D74E PUSH1 0xC0 SHL PUSH2 0x90D JUMP JUMPDEST PUSH2 0x640 PUSH8 0xCF04A34BDD58B30 PUSH1 0xC0 SHL PUSH2 0x90D JUMP JUMPDEST PUSH2 0x654 PUSH8 0xE8059616071A7BF8 PUSH1 0xC0 SHL PUSH2 0x90D JUMP JUMPDEST PUSH2 0x668 PUSH8 0x1820DBC9FCAC9DE1 PUSH1 0xC0 SHL PUSH2 0x90D JUMP JUMPDEST PUSH2 0x67C PUSH8 0xBAECFE2810745D02 PUSH1 0xC0 SHL PUSH2 0x90D JUMP JUMPDEST DUP1 PUSH1 0x2 PUSH1 0x0 PUSH2 0x100 EXP DUP2 SLOAD DUP2 PUSH20 0xFFFFFFFFFFFFFFFFFFFFFFFFFFFFFFFFFFFFFFFF MUL NOT AND SWAP1 DUP4 PUSH20 0xFFFFFFFFFFFFFFFFFFFFFFFFFFFFFFFFFFFFFFFF AND MUL OR SWAP1 SSTORE POP POP JUMP JUMPDEST PUSH1 0x60 PUSH1 0x0 DUP1 PUSH1 0x60 PUSH1 0x0 PUSH2 0x6DD PUSH8 0xE74C89349FD005E PUSH1 0xC0 SHL PUSH2 0x910 JUMP JUMPDEST PUSH2 0x6F1 PUSH8 0x1206FFDD1CB48653 PUSH1 0xC0 SHL PUSH2 0x910 JUMP JUMPDEST PUSH2 0x705 PUSH8 0xCE71F957866D28EC PUSH1 0xC0 SHL PUSH2 0x910 JUMP JUMPDEST PUSH1 0x0 DUP1 PUSH1 0x0 PUSH2 0x713 DUP10 PUSH2 0x370 JUMP JUMPDEST SWAP3 POP SWAP3 POP SWAP3 POP PUSH2 0x72D PUSH8 0xFDF48EEFBC2FDD3 PUSH1 0xC0 SHL PUSH2 0x910 JUMP JUMPDEST PUSH2 0x741 PUSH8 0xC96675B81C716894 PUSH1 0xC0 SHL PUSH2 0x910 JUMP JUMPDEST DUP3 DUP3 DUP3 PUSH2 0x74C PUSH2 0x2A2 JUMP JUMPDEST PUSH1 0x2 PUSH1 0x0 SWAP1 SLOAD SWAP1 PUSH2 0x100 EXP SWAP1 DIV PUSH20 0xFFFFFFFFFFFFFFFFFFFFFFFFFFFFFFFFFFFFFFFF AND SWAP8 POP SWAP8 POP SWAP8 POP SWAP8 POP SWAP8 POP POP POP POP SWAP2 SWAP4 SWAP6 SWAP1 SWAP3 SWAP5 POP JUMP JUMPDEST PUSH2 0x799 PUSH8 0xC3DB448844F9FF2A PUSH1 0xC0 SHL PUSH2 0x90A JUMP JUMPDEST PUSH2 0x7AD PUSH8 0x2A7307F722555796 PUSH1 0xC0 SHL PUSH2 0x90A JUMP JUMPDEST PUSH1 0x40 MLOAD DUP1 PUSH1 0x60 ADD PUSH1 0x40 MSTORE DUP1 DUP6 DUP6 DUP1 DUP1 PUSH1 0x1F ADD PUSH1 0x20 DUP1 SWAP2 DIV MUL PUSH1 0x20 ADD PUSH1 0x40 MLOAD SWAP1 DUP2 ADD PUSH1 0x40 MSTORE DUP1 SWAP4 SWAP3 SWAP2 SWAP1 DUP2 DUP2 MSTORE PUSH1 0x20 ADD DUP4 DUP4 DUP1 DUP3 DUP5 CALLDATACOPY PUSH1 0x0 DUP2 DUP5 ADD MSTORE PUSH1 0x1F NOT PUSH1 0x1F DUP3 ADD AND SWAP1 POP DUP1 DUP4 ADD SWAP3 POP POP POP POP POP POP POP DUP2 MSTORE PUSH1 0x20 ADD DUP4 DUP2 MSTORE PUSH1 0x20 ADD DUP3 DUP2 MSTORE POP PUSH1 0x1 PUSH1 0x0 DUP8 DUP2 MSTORE PUSH1 0x20 ADD SWAP1 DUP2 MSTORE PUSH1 0x20 ADD PUSH1 0x0 KECCAK256 PUSH1 0x0 DUP3 ADD MLOAD DUP2 PUSH1 0x0 ADD SWAP1 DUP2 PUSH2 0x834 SWAP2 SWAP1 PUSH2 0xF29 JUMP JUMPDEST POP PUSH1 0x20 DUP3 ADD MLOAD DUP2 PUSH1 0x1 ADD SSTORE PUSH1 0x40 DUP3 ADD MLOAD DUP2 PUSH1 0x2 ADD SSTORE SWAP1 POP POP POP POP POP POP POP JUMP JUMPDEST PUSH1 0x0 DUP1 SLOAD PUSH2 0x860 SWAP1 PUSH2 0xCB1 JUMP JUMPDEST DUP1 PUSH1 0x1F ADD PUSH1 0x20 DUP1 SWAP2 DIV MUL PUSH1 0x20 ADD PUSH1 0x40 MLOAD SWAP1 DUP2 ADD PUSH1 0x40 MSTORE DUP1 SWAP3 SWAP2 SWAP1 DUP2 DUP2 MSTORE PUSH1 0x20 ADD DUP3 DUP1 SLOAD PUSH2 0x88C SWAP1 PUSH2 0xCB1 JUMP JUMPDEST DUP1 ISZERO PUSH2 0x8D9 JUMPI DUP1 PUSH1 0x1F LT PUSH2 0x8AE JUMPI PUSH2 0x100 DUP1 DUP4 SLOAD DIV MUL DUP4 MSTORE SWAP2 PUSH1 0x20 ADD SWAP2 PUSH2 0x8D9 JUMP JUMPDEST DUP3 ADD SWAP2 SWAP1 PUSH1 0x0 MSTORE PUSH1 0x20 PUSH1 0x0 KECCAK256 SWAP1 JUMPDEST DUP2 SLOAD DUP2 MSTORE SWAP1 PUSH1 0x1 ADD SWAP1 PUSH1 0x20 ADD DUP1 DUP4 GT PUSH2 0x8BC JUMPI DUP3 SWAP1 SUB PUSH1 0x1F AND DUP3 ADD SWAP2 JUMPDEST POP POP POP POP POP DUP2 JUMP JUMPDEST PUSH1 0x2 PUSH1 0x0 SWAP1 SLOAD SWAP1 PUSH2 0x100 EXP SWAP1 DIV PUSH20 0xFFFFFFFFFFFFFFFFFFFFFFFFFFFFFFFFFFFFFFFF AND DUP2 JUMP JUMPDEST POP JUMP JUMPDEST POP JUMP JUMPDEST POP JUMP JUMPDEST POP JUMP JUMPDEST PUSH1 0x0 DUP1 REVERT JUMPDEST PUSH1 0x0 DUP1 REVERT JUMPDEST PUSH1 0x0 DUP2 SWAP1 POP SWAP2 SWAP1 POP JUMP JUMPDEST PUSH2 0x930 DUP2 PUSH2 0x91D JUMP JUMPDEST DUP2 EQ PUSH2 0x93B JUMPI PUSH1 0x0 DUP1 REVERT JUMPDEST POP JUMP JUMPDEST PUSH1 0x0 DUP2 CALLDATALOAD SWAP1 POP PUSH2 0x94D DUP2 PUSH2 0x927 JUMP JUMPDEST SWAP3 SWAP2 POP POP JUMP JUMPDEST PUSH1 0x0 PUSH1 0x20 DUP3 DUP5 SUB SLT ISZERO PUSH2 0x969 JUMPI PUSH2 0x968 PUSH2 0x913 JUMP JUMPDEST JUMPDEST PUSH1 0x0 PUSH2 0x977 DUP5 DUP3 DUP6 ADD PUSH2 0x93E JUMP JUMPDEST SWAP2 POP POP SWAP3 SWAP2 POP POP JUMP JUMPDEST PUSH1 0x0 DUP2 MLOAD SWAP1 POP SWAP2 SWAP1 POP JUMP JUMPDEST PUSH1 0x0 DUP3 DUP3 MSTORE PUSH1 0x20 DUP3 ADD SWAP1 POP SWAP3 SWAP2 POP POP JUMP JUMPDEST PUSH1 0x0 JUMPDEST DUP4 DUP2 LT ISZERO PUSH2 0x9BA JUMPI DUP1 DUP3 ADD MLOAD DUP2 DUP5 ADD MSTORE PUSH1 0x20 DUP2 ADD SWAP1 POP PUSH2 0x99F JUMP JUMPDEST PUSH1 0x0 DUP5 DUP5 ADD MSTORE POP POP POP POP JUMP JUMPDEST PUSH1 0x0 PUSH1 0x1F NOT PUSH1 0x1F DUP4 ADD AND SWAP1 POP SWAP2 SWAP1 POP JUMP JUMPDEST PUSH1 0x0 PUSH2 0x9E2 DUP3 PUSH2 0x980 JUMP JUMPDEST PUSH2 0x9EC DUP2 DUP6 PUSH2 0x98B JUMP JUMPDEST SWAP4 POP PUSH2 0x9FC DUP2 DUP6 PUSH1 0x20 DUP7 ADD PUSH2 0x99C JUMP JUMPDEST PUSH2 0xA05 DUP2 PUSH2 0x9C6 JUMP JUMPDEST DUP5 ADD SWAP2 POP POP SWAP3 SWAP2 POP POP JUMP JUMPDEST PUSH2 0xA19 DUP2 PUSH2 0x91D JUMP JUMPDEST DUP3 MSTORE POP POP JUMP JUMPDEST PUSH1 0x0 PUSH1 0x60 DUP3 ADD SWAP1 POP DUP2 DUP2 SUB PUSH1 0x0 DUP4 ADD MSTORE PUSH2 0xA39 DUP2 DUP7 PUSH2 0x9D7 JUMP JUMPDEST SWAP1 POP PUSH2 0xA48 PUSH1 0x20 DUP4 ADD DUP6 PUSH2 0xA10 JUMP JUMPDEST PUSH2 0xA55 PUSH1 0x40 DUP4 ADD DUP5 PUSH2 0xA10 JUMP JUMPDEST SWAP5 SWAP4 POP POP POP POP JUMP JUMPDEST PUSH1 0x0 PUSH1 0x20 DUP3 ADD SWAP1 POP DUP2 DUP2 SUB PUSH1 0x0 DUP4 ADD MSTORE PUSH2 0xA77 DUP2 DUP5 PUSH2 0x9D7 JUMP JUMPDEST SWAP1 POP SWAP3 SWAP2 POP POP JUMP JUMPDEST PUSH1 0x0 PUSH20 0xFFFFFFFFFFFFFFFFFFFFFFFFFFFFFFFFFFFFFFFF DUP3 AND SWAP1 POP SWAP2 SWAP1 POP JUMP JUMPDEST PUSH1 0x0 PUSH2 0xAAA DUP3 PUSH2 0xA7F JUMP JUMPDEST SWAP1 POP SWAP2 SWAP1 POP JUMP JUMPDEST PUSH2 0xABA DUP2 PUSH2 0xA9F JUMP JUMPDEST DUP3 MSTORE POP POP JUMP JUMPDEST PUSH1 0x0 PUSH1 0x20 DUP3 ADD SWAP1 POP PUSH2 0xAD5 PUSH1 0x0 DUP4 ADD DUP5 PUSH2 0xAB1 JUMP JUMPDEST SWAP3 SWAP2 POP POP JUMP JUMPDEST PUSH2 0xAE4 DUP2 PUSH2 0xA9F JUMP JUMPDEST DUP2 EQ PUSH2 0xAEF JUMPI PUSH1 0x0 DUP1 REVERT JUMPDEST POP JUMP JUMPDEST PUSH1 0x0 DUP2 CALLDATALOAD SWAP1 POP PUSH2 0xB01 DUP2 PUSH2 0xADB JUMP JUMPDEST SWAP3 SWAP2 POP POP JUMP JUMPDEST PUSH1 0x0 PUSH1 0x20 DUP3 DUP5 SUB SLT ISZERO PUSH2 0xB1D JUMPI PUSH2 0xB1C PUSH2 0x913 JUMP JUMPDEST JUMPDEST PUSH1 0x0 PUSH2 0xB2B DUP5 DUP3 DUP6 ADD PUSH2 0xAF2 JUMP JUMPDEST SWAP2 POP POP SWAP3 SWAP2 POP POP JUMP JUMPDEST PUSH1 0x0 PUSH1 0xA0 DUP3 ADD SWAP1 POP DUP2 DUP2 SUB PUSH1 0x0 DUP4 ADD MSTORE PUSH2 0xB4E DUP2 DUP9 PUSH2 0x9D7 JUMP JUMPDEST SWAP1 POP PUSH2 0xB5D PUSH1 0x20 DUP4 ADD DUP8 PUSH2 0xA10 JUMP JUMPDEST PUSH2 0xB6A PUSH1 0x40 DUP4 ADD DUP7 PUSH2 0xA10 JUMP JUMPDEST DUP2 DUP2 SUB PUSH1 0x60 DUP4 ADD MSTORE PUSH2 0xB7C DUP2 DUP6 PUSH2 0x9D7 JUMP JUMPDEST SWAP1 POP PUSH2 0xB8B PUSH1 0x80 DUP4 ADD DUP5 PUSH2 0xAB1 JUMP JUMPDEST SWAP7 SWAP6 POP POP POP POP POP POP JUMP JUMPDEST PUSH1 0x0 DUP1 REVERT JUMPDEST PUSH1 0x0 DUP1 REVERT JUMPDEST PUSH1 0x0 DUP1 REVERT JUMPDEST PUSH1 0x0 DUP1 DUP4 PUSH1 0x1F DUP5 ADD SLT PUSH2 0xBBA JUMPI PUSH2 0xBB9 PUSH2 0xB95 JUMP JUMPDEST JUMPDEST DUP3 CALLDATALOAD SWAP1 POP PUSH8 0xFFFFFFFFFFFFFFFF DUP2 GT ISZERO PUSH2 0xBD7 JUMPI PUSH2 0xBD6 PUSH2 0xB9A JUMP JUMPDEST JUMPDEST PUSH1 0x20 DUP4 ADD SWAP2 POP DUP4 PUSH1 0x1 DUP3 MUL DUP4 ADD GT ISZERO PUSH2 0xBF3 JUMPI PUSH2 0xBF2 PUSH2 0xB9F JUMP JUMPDEST JUMPDEST SWAP3 POP SWAP3 SWAP1 POP JUMP JUMPDEST PUSH1 0x0 DUP1 PUSH1 0x0 DUP1 PUSH1 0x0 PUSH1 0x80 DUP7 DUP9 SUB SLT ISZERO PUSH2 0xC16 JUMPI PUSH2 0xC15 PUSH2 0x913 JUMP JUMPDEST JUMPDEST PUSH1 0x0 PUSH2 0xC24 DUP9 DUP3 DUP10 ADD PUSH2 0x93E JUMP JUMPDEST SWAP6 POP POP PUSH1 0x20 DUP7 ADD CALLDATALOAD PUSH8 0xFFFFFFFFFFFFFFFF DUP2 GT ISZERO PUSH2 0xC45 JUMPI PUSH2 0xC44 PUSH2 0x918 JUMP JUMPDEST JUMPDEST PUSH2 0xC51 DUP9 DUP3 DUP10 ADD PUSH2 0xBA4 JUMP JUMPDEST SWAP5 POP SWAP5 POP POP PUSH1 0x40 PUSH2 0xC64 DUP9 DUP3 DUP10 ADD PUSH2 0x93E JUMP JUMPDEST SWAP3 POP POP PUSH1 0x60 PUSH2 0xC75 DUP9 DUP3 DUP10 ADD PUSH2 0x93E JUMP JUMPDEST SWAP2 POP POP SWAP3 SWAP6 POP SWAP3 SWAP6 SWAP1 SWAP4 POP JUMP JUMPDEST PUSH32 0x4E487B7100000000000000000000000000000000000000000000000000000000 PUSH1 0x0 MSTORE PUSH1 0x22 PUSH1 0x4 MSTORE PUSH1 0x24 PUSH1 0x0 REVERT JUMPDEST PUSH1 0x0 PUSH1 0x2 DUP3 DIV SWAP1 POP PUSH1 0x1 DUP3 AND DUP1 PUSH2 0xCC9 JUMPI PUSH1 0x7F DUP3 AND SWAP2 POP JUMPDEST PUSH1 0x20 DUP3 LT DUP2 SUB PUSH2 0xCDC JUMPI PUSH2 0xCDB PUSH2 0xC82 JUMP JUMPDEST JUMPDEST POP SWAP2 SWAP1 POP JUMP JUMPDEST PUSH32 0x4E6F742061646D696E0000000000000000000000000000000000000000000000 PUSH1 0x0 DUP3 ADD MSTORE POP JUMP JUMPDEST PUSH1 0x0 PUSH2 0xD18 PUSH1 0x9 DUP4 PUSH2 0x98B JUMP JUMPDEST SWAP2 POP PUSH2 0xD23 DUP3 PUSH2 0xCE2 JUMP JUMPDEST PUSH1 0x20 DUP3 ADD SWAP1 POP SWAP2 SWAP1 POP JUMP JUMPDEST PUSH1 0x0 PUSH1 0x20 DUP3 ADD SWAP1 POP DUP2 DUP2 SUB PUSH1 0x0 DUP4 ADD MSTORE PUSH2 0xD47 DUP2 PUSH2 0xD0B JUMP JUMPDEST SWAP1 POP SWAP2 SWAP1 POP JUMP JUMPDEST PUSH32 0x4E487B7100000000000000000000000000000000000000000000000000000000 PUSH1 0x0 MSTORE PUSH1 0x41 PUSH1 0x4 MSTORE PUSH1 0x24 PUSH1 0x0 REVERT JUMPDEST PUSH1 0x0 DUP2 SWAP1 POP DUP2 PUSH1 0x0 MSTORE PUSH1 0x20 PUSH1 0x0 KECCAK256 SWAP1 POP SWAP2 SWAP1 POP JUMP JUMPDEST PUSH1 0x0 PUSH1 0x20 PUSH1 0x1F DUP4 ADD DIV SWAP1 POP SWAP2 SWAP1 POP JUMP JUMPDEST PUSH1 0x0 DUP3 DUP3 SHL SWAP1 POP SWAP3 SWAP2 POP POP JUMP JUMPDEST PUSH1 0x0 PUSH1 0x8 DUP4 MUL PUSH2 0xDDF PUSH32 0xFFFFFFFFFFFFFFFFFFFFFFFFFFFFFFFFFFFFFFFFFFFFFFFFFFFFFFFFFFFFFFFF DUP3 PUSH2 0xDA2 JUMP JUMPDEST PUSH2 0xDE9 DUP7 DUP4 PUSH2 0xDA2 JUMP JUMPDEST SWAP6 POP DUP1 NOT DUP5 AND SWAP4 POP DUP1 DUP7 AND DUP5 OR SWAP3 POP POP POP SWAP4 SWAP3 POP POP POP JUMP JUMPDEST PUSH1 0x0 DUP2 SWAP1 POP SWAP2 SWAP1 POP JUMP JUMPDEST PUSH1 0x0 PUSH2 0xE26 PUSH2 0xE21 PUSH2 0xE1C DUP5 PUSH2 0x91D JUMP JUMPDEST PUSH2 0xE01 JUMP JUMPDEST PUSH2 0x91D JUMP JUMPDEST SWAP1 POP SWAP2 SWAP1 POP JUMP JUMPDEST PUSH1 0x0 DUP2 SWAP1 POP SWAP2 SWAP1 POP JUMP JUMPDEST PUSH2 0xE40 DUP4 PUSH2 0xE0B JUMP JUMPDEST PUSH2 0xE54 PUSH2 0xE4C DUP3 PUSH2 0xE2D JUMP JUMPDEST DUP5 DUP5 SLOAD PUSH2 0xDAF JUMP JUMPDEST DUP3 SSTORE POP POP POP POP JUMP JUMPDEST PUSH1 0x0 SWAP1 JUMP JUMPDEST PUSH2 0xE69 PUSH2 0xE5C JUMP JUMPDEST PUSH2 0xE74 DUP2 DUP5 DUP5 PUSH2 0xE37 JUMP JUMPDEST POP POP POP JUMP JUMPDEST JUMPDEST DUP2 DUP2 LT ISZERO PUSH2 0xE98 JUMPI PUSH2 0xE8D PUSH1 0x0 DUP3 PUSH2 0xE61 JUMP JUMPDEST PUSH1 0x1 DUP2 ADD SWAP1 POP PUSH2 0xE7A JUMP JUMPDEST POP POP JUMP JUMPDEST PUSH1 0x1F DUP3 GT ISZERO PUSH2 0xEDD JUMPI PUSH2 0xEAE DUP2 PUSH2 0xD7D JUMP JUMPDEST PUSH2 0xEB7 DUP5 PUSH2 0xD92 JUMP JUMPDEST DUP2 ADD PUSH1 0x20 DUP6 LT ISZERO PUSH2 0xEC6 JUMPI DUP2 SWAP1 POP JUMPDEST PUSH2 0xEDA PUSH2 0xED2 DUP6 PUSH2 0xD92 JUMP JUMPDEST DUP4 ADD DUP3 PUSH2 0xE79 JUMP JUMPDEST POP POP JUMPDEST POP POP POP JUMP JUMPDEST PUSH1 0x0 DUP3 DUP3 SHR SWAP1 POP SWAP3 SWAP2 POP POP JUMP JUMPDEST PUSH1 0x0 PUSH2 0xF00 PUSH1 0x0 NOT DUP5 PUSH1 0x8 MUL PUSH2 0xEE2 JUMP JUMPDEST NOT DUP1 DUP4 AND SWAP2 POP POP SWAP3 SWAP2 POP POP JUMP JUMPDEST PUSH1 0x0 PUSH2 0xF19 DUP4 DUP4 PUSH2 0xEEF JUMP JUMPDEST SWAP2 POP DUP3 PUSH1 0x2 MUL DUP3 OR SWAP1 POP SWAP3 SWAP2 POP POP JUMP JUMPDEST PUSH2 0xF32 DUP3 PUSH2 0x980 JUMP JUMPDEST PUSH8 0xFFFFFFFFFFFFFFFF DUP2 GT ISZERO PUSH2 0xF4B JUMPI PUSH2 0xF4A PUSH2 0xD4E JUMP JUMPDEST JUMPDEST PUSH2 0xF55 DUP3 SLOAD PUSH2 0xCB1 JUMP JUMPDEST PUSH2 0xF60 DUP3 DUP3 DUP6 PUSH2 0xE9C JUMP JUMPDEST PUSH1 0x0 PUSH1 0x20 SWAP1 POP PUSH1 0x1F DUP4 GT PUSH1 0x1 DUP2 EQ PUSH2 0xF93 JUMPI PUSH1 0x0 DUP5 ISZERO PUSH2 0xF81 JUMPI DUP3 DUP8 ADD MLOAD SWAP1 POP JUMPDEST PUSH2 0xF8B DUP6 DUP3 PUSH2 0xF0D JUMP JUMPDEST DUP7 SSTORE POP PUSH2 0xFF3 JUMP JUMPDEST PUSH1 0x1F NOT DUP5 AND PUSH2 0xFA1 DUP7 PUSH2 0xD7D JUMP JUMPDEST PUSH1 0x0 JUMPDEST DUP3 DUP2 LT ISZERO PUSH2 0xFC9 JUMPI DUP5 DUP10 ADD MLOAD DUP3 SSTORE PUSH1 0x1 DUP3 ADD SWAP2 POP PUSH1 0x20 DUP6 ADD SWAP5 POP PUSH1 0x20 DUP2 ADD SWAP1 POP PUSH2 0xFA4 JUMP JUMPDEST DUP7 DUP4 LT ISZERO PUSH2 0xFE6 JUMPI DUP5 DUP10 ADD MLOAD PUSH2 0xFE2 PUSH1 0x1F DUP10 AND DUP3 PUSH2 0xEEF JUMP JUMPDEST DUP4 SSTORE POP JUMPDEST PUSH1 0x1 PUSH1 0x2 DUP9 MUL ADD DUP9 SSTORE POP POP POP JUMPDEST POP POP POP POP POP POP JUMP INVALID LOG2 PUSH5 0x6970667358 0x22 SLT KECCAK256 PUSH15 0x5593FD5ABACBAB312FB29928DEA36B 0xCE 0xFC CALLVALUE 0xBF 0xED 0xB0 0xB9 GASPRICE 0xD0 0xDB 0x5F PREVRANDAO 0xA7 PUSH17 0xFECD64736F6C6343000813003300000000 "},"methodIdentifiers":{"addStudent(uint256,string,uint256,uint256)":"b1d70479","admin()":"f851a440","changeAdmin(address)":"8f283970","getAdmin()":"6e9960c3","getFullDetails(uint256)":"a5f8e8ce","getSchoolName()":"4fc555c3","getStudent(uint256)":"642f9163","schoolName()":"d2619fe0","students(uint256)":"06ead22e"}}}}}