{"contracts/fullSchoolSystem.sol":{"Parent":{"abi":[{"inputs":[],"name":"sayHello","outputs":[{"internalType":"string","name":"","type":"string"}],"stateMutability":"pure","type":"function"}],"evm":{"bytecode":{"linkReferences":{},"object":"608060405234801561001057600080fd5b506101b2806100206000396000f3fe608060405234801561001057600080fd5b506004361061002b5760003560e01c8063ef5fb05b14610030575b600080fd5b61003861004e565b604051610045919061015a565b60405180910390f35b6060610064673904aee1bdae59d960c01b6100c7565b6100786714a8d389629e433360c01b6100c7565b61008c67037bce097307644060c01b6100c7565b6040518060400160405280601181526020017f48656c6c6f2066726f6d20506172656e74000000000000000000000000000000815250905090565b50565b600081519050919050565b600082825260208201905092915050565b60005b838110156101045780820151818401526020810190506100e9565b60008484015250505050565b6000601f19601f8301169050919050565b600061012c826100ca565b61013681856100d5565b93506101468185602086016100e6565b61014f81610110565b840191505092915050565b600060208201905081810360008301526101748184610121565b90509291505056fea264697066735822122074dc8dcd159177caa42d8f3229584df0af4846055e729d1d4d2a10a7b3a9dd5664736f6c63430008130033","opcodes":"PUSH1 0x80 PUSH1 0x40 MSTORE CALLVALUE DUP1 ISZERO PUSH2 0x10 JUMPI PUSH1 0x0 DUP1 REVERT JUMPDEST POP PUSH2 0x1B2 DUP1 PUSH2 0x20 PUSH1 0x0 CODECOPY PUSH1 0x0 RETURN INVALID PUSH1 0x80 PUSH1 0x40 MSTORE CALLVALUE DUP1 ISZERO PUSH2 0x10 JUMPI PUSH1 0x0 DUP1 REVERT JUMPDEST POP PUSH1 0x4 CALLDATASIZE LT PUSH2 0x2B JUMPI PUSH1 0x0 CALLDATALOAD PUSH1 0xE0 SHR DUP1 PUSH4 0xEF5FB05B EQ PUSH2 0x30 JUMPI JUMPDEST PUSH1 0x0 DUP1 REVERT JUMPDEST PUSH2 0x38 PUSH2 0x4E JUMP JUMPDEST PUSH1 0x40 MLOAD PUSH2 0x45 SWAP2 SWAP1 PUSH2 0x15A JUMP JUMPDEST PUSH1 0x40 MLOAD DUP1 SWAP2 SUB SWAP1 RETURN JUMPDEST PUSH1 0x60 PUSH2 0x64 PUSH8 0x3904AEE1BDAE59D9 PUSH1 0xC0 SHL PUSH2 0xC7 JUMP JUMPDEST PUSH2 0x78 PUSH8 0x14A8D389629E4333 PUSH1 0xC0 SHL PUSH2 0xC7 JUMP JUMPDEST PUSH2 0x8C PUSH8 0x37BCE0973076440 PUSH1 0xC0 SHL PUSH2 0xC7 JUMP JUMPDEST PUSH1 0x40 MLOAD DUP1 PUSH1 0x40 ADD PUSH1 0x40 MSTORE DUP1 PUSH1 0x11 DUP2 MSTORE PUSH1 0x20 ADD PUSH32 0x48656C6C6F2066726F6D20506172656E74000000000000000000000000000000 DUP2 MSTORE POP SWAP1 POP SWAP1 JUMP JUMPDEST POP JUMP JUMPDEST PUSH1 0x0 DUP2 MLOAD SWAP1 POP SWAP2 SWAP1 POP JUMP JUMPDEST PUSH1 0x0 DUP3 DUP3 MSTORE PUSH1 0x20 DUP3 ADD SWAP1 POP SWAP3 SWAP2 POP POP JUMP JUMPDEST PUSH1 0x0 JUMPDEST DUP4 DUP2 LT ISZERO PUSH2 0x104 JUMPI DUP1 DUP3 ADD MLOAD DUP2 DUP5 ADD MSTORE PUSH1 0x20 DUP2 ADD SWAP1 POP PUSH2 0xE9 JUMP JUMPDEST PUSH1 0x0 DUP5 DUP5 ADD MSTORE POP POP POP POP JUMP JUMPDEST PUSH1 0x0 PUSH1 0x1F NOT PUSH1 0x1F DUP4 ADD AND SWAP1 POP SWAP2 SWAP1 POP JUMP JUMPDEST PUSH1 0x0 PUSH2 0x12C DUP3 PUSH2 0xCA JUMP JUMPDEST PUSH2 0x136 DUP2 DUP6 PUSH2 0xD5 JUMP JUMPDEST SWAP4 POP PUSH2 0x146 DUP2 DUP6 PUSH1 0x20 DUP7 ADD PUSH2 0xE6 JUMP JUMPDEST PUSH2 0x14F DUP2 PUSH2 0x110 JUMP JUMPDEST DUP5 ADD SWAP2 POP POP SWAP3 SWAP2 POP POP JUMP JUMPDEST PUSH1 0x0 PUSH1 0x20 DUP3 ADD SWAP1 POP DUP2 DUP2 SUB PUSH1 0x0 DUP4 ADD MSTORE PUSH2 0x174 DUP2 DUP5 PUSH2 0x121 JUMP JUMPDEST SWAP1 POP SWAP3 SWAP2 POP POP JUMP INVALID LOG2 PUSH5 0x6970667358 0x22 SLT KECCAK256 PUSH21 0xDC8DCD159177CAA42D8F3229584DF0AF4846055E72 SWAP14 SAR 0x4D 0x2A LT 0xA7 0xB3 0xA9 0xDD JUMP PUSH5 0x736F6C6343 STOP ADDMOD SGT STOP CALLER "},"methodIdentifiers":{"sayHello()":"ef5fb05b"}}}}}