{
  "_format": "hh-sol-artifact-1",
  "contractName": "AdminControl",
  "sourceName": "contracts/fullSchoolSystem.sol",
  "abi": [
    {
      "inputs": [],
      "stateMutability": "nonpayable",
      "type": "constructor"
    },
    {
      "inputs": [],
      "name": "admin",
      "outputs": [
        {
          "internalType": "address",
          "name": "",
          "type": "address"
        }
      ],
      "stateMutability": "view",
      "type": "function"
    },
    {
      "inputs": [
        {
          "internalType": "address",
          "name": "_newAdmin",
          "type": "address"
        }
      ],
      "name": "changeAdmin",
      "outputs": [],
      "stateMutability": "nonpayable",
      "type": "function"
    }
  ],
  "bytecode": "0x608060405234801561001057600080fd5b50600080546001600160a01b03191633179055610197806100326000396000f3fe608060405234801561001057600080fd5b50600436106100365760003560e01c80638f2839701461003b578063f851a44014610050575b600080fd5b61004e610049366004610131565b61007f565b005b600054610063906001600160a01b031681565b6040516001600160a01b03909116815260200160405180910390f35b6000546001600160a01b031633146100f7576040517f08c379a000000000000000000000000000000000000000000000000000000000815260206004820152600960248201527f4e6f742061646d696e0000000000000000000000000000000000000000000000604482015260640160405180910390fd5b600080547fffffffffffffffffffffffff0000000000000000000000000000000000000000166001600160a01b0392909216919091179055565b60006020828403121561014357600080fd5b81356001600160a01b038116811461015a57600080fd5b939250505056fea26469706673582212205bccbeeb01342ea41bc7f5a8e981a4305a23152388ca591c0374e1986c14552264736f6c63430008130033",
  "linkReferences": {},
  "deployedLinkReferences": {}
}