{
  "_format": "hh-sol-artifact-1",
  "contractName": "AdminControl",
  "sourceName": "contracts/fullSchoolSystem.sol",
  "abi": [
    {
      "inputs": [],
      "stateMutability": "nonpayable",
      "type": "constructor"
    },
    {
      "inputs": [],
      "name": "admin",
      "outputs": [
        {
          "internalType": "address",
          "name": "",
          "type": "address"
        }
      ],
      "stateMutability": "view",
      "type": "function"
    },
    {
      "inputs": [
        {
          "internalType": "address",
          "name": "_newAdmin",
          "type": "address"
        }
      ],
      "name": "changeAdmin",
      "outputs": [],
      "stateMutability": "nonpayable",
      "type": "function"
    }
  ],
  "bytecode": "0x608060405234801561001057600080fd5b5061002b673f4a1d3a3c25c94360c01b61008a60201b60201c565b61004567fefdca872894016260c01b61008a60201b60201c565b336000806101000a81548173ffffffffffffffffffffffffffffffffffffffff021916908373ffffffffffffffffffffffffffffffffffffffff16021790555061008d565b50565b6103a28061009c6000396000f3fe608060405234801561001057600080fd5b50600436106100365760003560e01c80638f2839701461003b578063f851a44014610057575b600080fd5b61005560048036038101906100509190610298565b610075565b005b61005f61020e565b60405161006c91906102d4565b60405180910390f35b610089672043425a96a6cdc360c01b610232565b61009d67339ef68edd95783860c01b610232565b6100b16705bca21fb069d74e60c01b610232565b6100c5670cf04a34bdd58b3060c01b610232565b6100d9670a79819ec8cb1d6f60c01b610232565b60008054906101000a900473ffffffffffffffffffffffffffffffffffffffff1673ffffffffffffffffffffffffffffffffffffffff163373ffffffffffffffffffffffffffffffffffffffff1614610167576040517f08c379a000000000000000000000000000000000000000000000000000000000815260040161015e9061034c565b60405180910390fd5b61017b67cd7ab2e19926105160c01b610232565b61018f67fa6b175c909c1a5c60c01b610232565b6101a36769385be7ccf1d9c760c01b610232565b6101b7671820dbc9fcac9de160c01b610232565b6101cb67baecfe2810745d0260c01b610232565b806000806101000a81548173ffffffffffffffffffffffffffffffffffffffff021916908373ffffffffffffffffffffffffffffffffffffffff16021790555050565b60008054906101000a900473ffffffffffffffffffffffffffffffffffffffff1681565b50565b600080fd5b600073ffffffffffffffffffffffffffffffffffffffff82169050919050565b60006102658261023a565b9050919050565b6102758161025a565b811461028057600080fd5b50565b6000813590506102928161026c565b92915050565b6000602082840312156102ae576102ad610235565b5b60006102bc84828501610283565b91505092915050565b6102ce8161025a565b82525050565b60006020820190506102e960008301846102c5565b92915050565b600082825260208201905092915050565b7f4e6f742061646d696e0000000000000000000000000000000000000000000000600082015250565b60006103366009836102ef565b915061034182610300565b602082019050919050565b6000602082019050818103600083015261036581610329565b905091905056fea2646970667358221220d75630107a08c736a64fe3a40eb9134426b424ae4c5036d3a63acb3f6a9b91f964736f6c63430008130033",
  "linkReferences": {},
  "deployedLinkReferences": {}
}