{
  "_format": "hh-sol-artifact-1",
  "contractName": "AdminControl",
  "sourceName": "contracts/fullSchoolSystem.sol",
  "abi": [
    {
      "inputs": [],
      "stateMutability": "nonpayable",
      "type": "constructor"
    },
    {
      "inputs": [],
      "name": "admin",
      "outputs": [
        {
          "internalType": "address",
          "name": "",
          "type": "address"
        }
      ],
      "stateMutability": "view",
      "type": "function"
    },
    {
      "inputs": [
        {
          "internalType": "address",
          "name": "_newAdmin",
          "type": "address"
        }
      ],
      "name": "changeAdmin",
      "outputs": [],
      "stateMutability": "nonpayable",
      "type": "function"
    },
    {
      "inputs": [],
      "name": "getAdmin",
      "outputs": [
        {
          "internalType": "address",
          "name": "",
          "type": "address"
        }
      ],
      "stateMutability": "view",
      "type": "function"
    }
  ],
  "bytecode": "0x608060405234801561001057600080fd5b5061002b6725efe1d200e708c960c01b61008a60201b60201c565b610045677d4d915b6ea4466f60c01b61008a60201b60201c565b336000806101000a81548173ffffffffffffffffffffffffffffffffffffffff021916908373ffffffffffffffffffffffffffffffffffffffff16021790555061008d565b50565b61042f8061009c6000396000f3fe608060405234801561001057600080fd5b50600436106100415760003560e01c80636e9960c3146100465780638f28397014610064578063f851a44014610080575b600080fd5b61004e61009e565b60405161005b9190610303565b60405180910390f35b61007e6004803603810190610079919061034f565b610102565b005b61008861029b565b6040516100959190610303565b60405180910390f35b60006100b4670a79819ec8cb1d6f60c01b6102bf565b6100c867cd7ab2e19926105160c01b6102bf565b6100dc67fa6b175c909c1a5c60c01b6102bf565b60008054906101000a900473ffffffffffffffffffffffffffffffffffffffff16905090565b6101166746693fd4e3857b2e60c01b6102bf565b61012a67a96cba1b9730514460c01b6102bf565b61013e673f4a1d3a3c25c94360c01b6102bf565b61015267fefdca872894016260c01b6102bf565b61016667339ef68edd95783860c01b6102bf565b60008054906101000a900473ffffffffffffffffffffffffffffffffffffffff1673ffffffffffffffffffffffffffffffffffffffff163373ffffffffffffffffffffffffffffffffffffffff16146101f4576040517f08c379a00000000000000000000000000000000000000000000000000000000081526004016101eb906103d9565b60405180910390fd5b6102086705bca21fb069d74e60c01b6102bf565b61021c670cf04a34bdd58b3060c01b6102bf565b61023067e8059616071a7bf860c01b6102bf565b610244671820dbc9fcac9de160c01b6102bf565b61025867baecfe2810745d0260c01b6102bf565b806000806101000a81548173ffffffffffffffffffffffffffffffffffffffff021916908373ffffffffffffffffffffffffffffffffffffffff16021790555050565b60008054906101000a900473ffffffffffffffffffffffffffffffffffffffff1681565b50565b600073ffffffffffffffffffffffffffffffffffffffff82169050919050565b60006102ed826102c2565b9050919050565b6102fd816102e2565b82525050565b600060208201905061031860008301846102f4565b92915050565b600080fd5b61032c816102e2565b811461033757600080fd5b50565b60008135905061034981610323565b92915050565b6000602082840312156103655761036461031e565b5b60006103738482850161033a565b91505092915050565b600082825260208201905092915050565b7f4e6f742061646d696e0000000000000000000000000000000000000000000000600082015250565b60006103c360098361037c565b91506103ce8261038d565b602082019050919050565b600060208201905081810360008301526103f2816103b6565b905091905056fea2646970667358221220821eb5a1e2a9cfd9ad55b4e601c2e269245eef7244dc7f2d5b024b8809fbbd7c64736f6c63430008130033",
  "linkReferences": {},
  "deployedLinkReferences": {}
}