{
  "_format": "hh-sol-artifact-1",
  "contractName": "AdminControl",
  "sourceName": "contracts/fullSchoolSystem.sol",
  "abi": [
    {
      "inputs": [],
      "stateMutability": "nonpayable",
      "type": "constructor"
    },
    {
      "inputs": [],
      "name": "admin",
      "outputs": [
        {
          "internalType": "address",
          "name": "",
          "type": "address"
        }
      ],
      "stateMutability": "view",
      "type": "function"
    },
    {
      "inputs": [
        {
          "internalType": "address",
          "name": "_newAdmin",
          "type": "address"
        }
      ],
      "name": "changeAdmin",
      "outputs": [],
      "stateMutability": "nonpayable",
      "type": "function"
    },
    {
      "inputs": [],
      "name": "getAdmin",
      "outputs": [
        {
          "internalType": "address",
          "name": "",
          "type": "address"
        }
      ],
      "stateMutability": "view",
      "type": "function"
    }
  ],
  "bytecode": "0x608060405234801561001057600080fd5b50600080546001600160a01b031916331790556101af806100326000396000f3fe608060405234801561001057600080fd5b50600436106100415760003560e01c80636e9960c3146100465780638f2839701461006f578063f851a44014610084575b600080fd5b6000546001600160a01b03165b6040516001600160a01b03909116815260200160405180910390f35b61008261007d366004610149565b610097565b005b600054610053906001600160a01b031681565b6000546001600160a01b0316331461010f576040517f08c379a000000000000000000000000000000000000000000000000000000000815260206004820152600960248201527f4e6f742061646d696e0000000000000000000000000000000000000000000000604482015260640160405180910390fd5b600080547fffffffffffffffffffffffff0000000000000000000000000000000000000000166001600160a01b0392909216919091179055565b60006020828403121561015b57600080fd5b81356001600160a01b038116811461017257600080fd5b939250505056fea2646970667358221220b0c51541a51898abae55faa87a04dce0c92f036be5713419df601ab2b54c0daa64736f6c63430008130033",
  "linkReferences": {},
  "deployedLinkReferences": {}
}