{
  "_format": "hh-sol-artifact-1",
  "contractName": "Child",
  "sourceName": "contracts/fullSchoolSystem.sol",
  "abi": [
    {
      "inputs": [],
      "name": "sayHello",
      "outputs": [
        {
          "internalType": "string",
          "name": "",
          "type": "string"
        }
      ],
      "stateMutability": "pure",
      "type": "function"
    },
    {
      "inputs": [],
      "name": "sayHelloFromChild",
      "outputs": [
        {
          "internalType": "string",
          "name": "",
          "type": "string"
        }
      ],
      "stateMutability": "pure",
      "type": "function"
    }
  ],
  "bytecode": "0x608060405234801561001057600080fd5b50610257806100206000396000f3fe608060405234801561001057600080fd5b50600436106100365760003560e01c806382a5ab801461003b578063ef5fb05b14610059575b600080fd5b610043610077565b60405161005091906101ff565b60405180910390f35b6100616100f0565b60405161006e91906101ff565b60405180910390f35b606061008d67a78181056b2f2a9860c01b610169565b6100a167891b34128e9acfd660c01b610169565b6100b5678dfcd4972829cab160c01b610169565b6040518060400160405280601081526020017f48656c6c6f2066726f6d204368696c6400000000000000000000000000000000815250905090565b6060610106673904aee1bdae59d960c01b61016c565b61011a6714a8d389629e433360c01b61016c565b61012e67037bce097307644060c01b61016c565b6040518060400160405280601181526020017f48656c6c6f2066726f6d20506172656e74000000000000000000000000000000815250905090565b50565b50565b600081519050919050565b600082825260208201905092915050565b60005b838110156101a957808201518184015260208101905061018e565b60008484015250505050565b6000601f19601f8301169050919050565b60006101d18261016f565b6101db818561017a565b93506101eb81856020860161018b565b6101f4816101b5565b840191505092915050565b6000602082019050818103600083015261021981846101c6565b90509291505056fea2646970667358221220e2fbdffdee72f108fcf17c64864bf6faeae26cfafeac3708e263e5d6db1bd2ce64736f6c63430008130033",
  "linkReferences": {},
  "deployedLinkReferences": {}
}