{
  "_format": "hh-sol-artifact-1",
  "contractName": "Child_f",
  "sourceName": "contracts/fullSchoolSystem.sol",
  "abi": [
    {
      "inputs": [
        {
          "internalType": "address",
          "name": "_externalContractAddress",
          "type": "address"
        }
      ],
      "stateMutability": "nonpayable",
      "type": "constructor"
    },
    {
      "inputs": [],
      "name": "callExternalFunction",
      "outputs": [
        {
          "internalType": "string",
          "name": "",
          "type": "string"
        }
      ],
      "stateMutability": "view",
      "type": "function"
    }
  ],
  "bytecode": "0x608060405234801561001057600080fd5b506040516104e13803806104e183398181016040528101906100329190610112565b61004c674c39140f7c25448660c01b6100ac60201b60201c565b610066673938fca9d116d52560c01b6100ac60201b60201c565b806000806101000a81548173ffffffffffffffffffffffffffffffffffffffff021916908373ffffffffffffffffffffffffffffffffffffffff1602179055505061013f565b50565b600080fd5b600073ffffffffffffffffffffffffffffffffffffffff82169050919050565b60006100df826100b4565b9050919050565b6100ef816100d4565b81146100fa57600080fd5b50565b60008151905061010c816100e6565b92915050565b600060208284031215610128576101276100af565b5b6000610136848285016100fd565b91505092915050565b6103938061014e6000396000f3fe608060405234801561001057600080fd5b506004361061002b5760003560e01c8063c68c2d0614610030575b600080fd5b61003861004e565b60405161004591906101b8565b60405180910390f35b6060610064675d4166cfaa4e0ea760c01b610125565b610078676a033753b2976f9860c01b610125565b61008c6721004be6e1457e9960c01b610125565b60008054906101000a900473ffffffffffffffffffffffffffffffffffffffff1673ffffffffffffffffffffffffffffffffffffffff16633a32b5496040518163ffffffff1660e01b8152600401600060405180830381865afa1580156100f7573d6000803e3d6000fd5b505050506040513d6000823e3d601f19601f820116820180604052508101906101209190610314565b905090565b50565b600081519050919050565b600082825260208201905092915050565b60005b83811015610162578082015181840152602081019050610147565b60008484015250505050565b6000601f19601f8301169050919050565b600061018a82610128565b6101948185610133565b93506101a4818560208601610144565b6101ad8161016e565b840191505092915050565b600060208201905081810360008301526101d2818461017f565b905092915050565b6000604051905090565b600080fd5b600080fd5b600080fd5b600080fd5b7f4e487b7100000000000000000000000000000000000000000000000000000000600052604160045260246000fd5b6102308261016e565b810181811067ffffffffffffffff8211171561024f5761024e6101f8565b5b80604052505050565b60006102626101da565b905061026e8282610227565b919050565b600067ffffffffffffffff82111561028e5761028d6101f8565b5b6102978261016e565b9050602081019050919050565b60006102b76102b284610273565b610258565b9050828152602081018484840111156102d3576102d26101f3565b5b6102de848285610144565b509392505050565b600082601f8301126102fb576102fa6101ee565b5b815161030b8482602086016102a4565b91505092915050565b60006020828403121561032a576103296101e4565b5b600082015167ffffffffffffffff811115610348576103476101e9565b5b610354848285016102e6565b9150509291505056fea2646970667358221220b7afea8cf35486bbc7bf25f73606d9260f15198246434f5b91190a215ffae08664736f6c63430008130033",
  "linkReferences": {},
  "deployedLinkReferences": {}
}