{
  "_format": "hh-sol-artifact-1",
  "contractName": "FullSchoolSystem",
  "sourceName": "contracts/fullSchoolSystem.sol",
  "abi": [
    {
      "inputs": [
        {
          "internalType": "string",
          "name": "_schoolName",
          "type": "string"
        }
      ],
      "stateMutability": "nonpayable",
      "type": "constructor"
    },
    {
      "inputs": [
        {
          "internalType": "uint256",
          "name": "_id",
          "type": "uint256"
        },
        {
          "internalType": "string",
          "name": "_name",
          "type": "string"
        },
        {
          "internalType": "uint256",
          "name": "_mathGrade",
          "type": "uint256"
        },
        {
          "internalType": "uint256",
          "name": "_scienceGrade",
          "type": "uint256"
        }
      ],
      "name": "addStudent",
      "outputs": [],
      "stateMutability": "nonpayable",
      "type": "function"
    },
    {
      "inputs": [],
      "name": "admin",
      "outputs": [
        {
          "internalType": "address",
          "name": "",
          "type": "address"
        }
      ],
      "stateMutability": "view",
      "type": "function"
    },
    {
      "inputs": [
        {
          "internalType": "address",
          "name": "_newAdmin",
          "type": "address"
        }
      ],
      "name": "changeAdmin",
      "outputs": [],
      "stateMutability": "nonpayable",
      "type": "function"
    },
    {
      "inputs": [
        {
          "internalType": "uint256",
          "name": "_id",
          "type": "uint256"
        }
      ],
      "name": "getFullDetails",
      "outputs": [
        {
          "internalType": "string",
          "name": "",
          "type": "string"
        },
        {
          "internalType": "uint256",
          "name": "",
          "type": "uint256"
        },
        {
          "internalType": "uint256",
          "name": "",
          "type": "uint256"
        },
        {
          "internalType": "string",
          "name": "",
          "type": "string"
        },
        {
          "internalType": "address",
          "name": "",
          "type": "address"
        }
      ],
      "stateMutability": "view",
      "type": "function"
    },
    {
      "inputs": [],
      "name": "getSchoolName",
      "outputs": [
        {
          "internalType": "string",
          "name": "",
          "type": "string"
        }
      ],
      "stateMutability": "view",
      "type": "function"
    },
    {
      "inputs": [
        {
          "internalType": "uint256",
          "name": "_id",
          "type": "uint256"
        }
      ],
      "name": "getStudent",
      "outputs": [
        {
          "internalType": "string",
          "name": "",
          "type": "string"
        },
        {
          "internalType": "uint256",
          "name": "",
          "type": "uint256"
        },
        {
          "internalType": "uint256",
          "name": "",
          "type": "uint256"
        }
      ],
      "stateMutability": "view",
      "type": "function"
    },
    {
      "inputs": [],
      "name": "schoolName",
      "outputs": [
        {
          "internalType": "string",
          "name": "",
          "type": "string"
        }
      ],
      "stateMutability": "view",
      "type": "function"
    },
    {
      "inputs": [
        {
          "internalType": "uint256",
          "name": "",
          "type": "uint256"
        }
      ],
      "name": "students",
      "outputs": [
        {
          "internalType": "string",
          "name": "name",
          "type": "string"
        },
        {
          "internalType": "uint256",
          "name": "mathGrade",
          "type": "uint256"
        },
        {
          "internalType": "uint256",
          "name": "scienceGrade",
          "type": "uint256"
        }
      ],
      "stateMutability": "view",
      "type": "function"
    }
  ],
  "bytecode": "0x60806040523480156200001157600080fd5b5060405162000b7c38038062000b7c833981016040819052620000349162000077565b80806000620000448282620001db565b5050600280546001600160a01b0319163317905550620002a79050565b634e487b7160e01b600052604160045260246000fd5b600060208083850312156200008b57600080fd5b82516001600160401b0380821115620000a357600080fd5b818501915085601f830112620000b857600080fd5b815181811115620000cd57620000cd62000061565b604051601f8201601f19908116603f01168101908382118183101715620000f857620000f862000061565b8160405282815288868487010111156200011157600080fd5b600093505b8284101562000135578484018601518185018701529285019262000116565b600086848301015280965050505050505092915050565b600181811c908216806200016157607f821691505b6020821081036200018257634e487b7160e01b600052602260045260246000fd5b50919050565b601f821115620001d657600081815260208120601f850160051c81016020861015620001b15750805b601f850160051c820191505b81811015620001d257828155600101620001bd565b5050505b505050565b81516001600160401b03811115620001f757620001f762000061565b6200020f816200020884546200014c565b8462000188565b602080601f8311600181146200024757600084156200022e5750858301515b600019600386901b1c1916600185901b178555620001d2565b600085815260208120601f198616915b82811015620002785788860151825594840194600190910190840162000257565b5085821015620002975787850151600019600388901b60f8161c191681555b5050505050600190811b01905550565b6108c580620002b76000396000f3fe608060405234801561001057600080fd5b50600436106100885760003560e01c8063a5f8e8ce1161005b578063a5f8e8ce146100f5578063b1d7047914610119578063d2619fe01461012c578063f851a4401461013457600080fd5b806306ead22e1461008d5780634fc555c3146100b8578063642f9163146100cd5780638f283970146100e0575b600080fd5b6100a061009b366004610591565b61015f565b6040516100af939291906105f0565b60405180910390f35b6100c0610209565b6040516100af9190610615565b6100a06100db366004610591565b61029b565b6100f36100ee36600461062f565b610381565b005b610108610103366004610591565b610433565b6040516100af959493929190610658565b6100f36101273660046106a5565b61047c565b6100c0610503565b600254610147906001600160a01b031681565b6040516001600160a01b0390911681526020016100af565b60016020526000908152604090208054819061017a90610730565b80601f01602080910402602001604051908101604052809291908181526020018280546101a690610730565b80156101f35780601f106101c8576101008083540402835291602001916101f3565b820191906000526020600020905b8154815290600101906020018083116101d657829003601f168201915b5050505050908060010154908060020154905083565b60606000805461021890610730565b80601f016020809104026020016040519081016040528092919081815260200182805461024490610730565b80156102915780601f1061026657610100808354040283529160200191610291565b820191906000526020600020905b81548152906001019060200180831161027457829003601f168201915b5050505050905090565b60606000806000600160008681526020019081526020016000206040518060600160405290816000820180546102d090610730565b80601f01602080910402602001604051908101604052809291908181526020018280546102fc90610730565b80156103495780601f1061031e57610100808354040283529160200191610349565b820191906000526020600020905b81548152906001019060200180831161032c57829003601f168201915b505050918352505060018201546020808301919091526002909201546040918201528251918301519201519097919650945092505050565b6002546001600160a01b031633146103f9576040517f08c379a000000000000000000000000000000000000000000000000000000000815260206004820152600960248201527f4e6f742061646d696e0000000000000000000000000000000000000000000000604482015260640160405180910390fd5b600280547fffffffffffffffffffffffff0000000000000000000000000000000000000000166001600160a01b0392909216919091179055565b606060008060606000806000806104498961029b565b92509250925082828261045a610209565b600254939d929c50909a5098506001600160a01b039091169650945050505050565b604051806060016040528085858080601f0160208091040260200160405190810160405280939291908181526020018383808284376000920182905250938552505050602080830186905260409283018590528882526001905220815181906104e590826107cf565b50602082015160018201556040909101516002909101555050505050565b6000805461051090610730565b80601f016020809104026020016040519081016040528092919081815260200182805461053c90610730565b80156105895780601f1061055e57610100808354040283529160200191610589565b820191906000526020600020905b81548152906001019060200180831161056c57829003601f168201915b505050505081565b6000602082840312156105a357600080fd5b5035919050565b6000815180845260005b818110156105d0576020818501810151868301820152016105b4565b506000602082860101526020601f19601f83011685010191505092915050565b60608152600061060360608301866105aa565b60208301949094525060400152919050565b60208152600061062860208301846105aa565b9392505050565b60006020828403121561064157600080fd5b81356001600160a01b038116811461062857600080fd5b60a08152600061066b60a08301886105aa565b866020840152856040840152828103606084015261068981866105aa565b9150506001600160a01b03831660808301529695505050505050565b6000806000806000608086880312156106bd57600080fd5b85359450602086013567ffffffffffffffff808211156106dc57600080fd5b818801915088601f8301126106f057600080fd5b8135818111156106ff57600080fd5b89602082850101111561071157600080fd5b9699602092909201985095966040810135965060600135945092505050565b600181811c9082168061074457607f821691505b60208210810361076457634e487b7160e01b600052602260045260246000fd5b50919050565b634e487b7160e01b600052604160045260246000fd5b601f8211156107ca57600081815260208120601f850160051c810160208610156107a75750805b601f850160051c820191505b818110156107c6578281556001016107b3565b5050505b505050565b815167ffffffffffffffff8111156107e9576107e961076a565b6107fd816107f78454610730565b84610780565b602080601f831160018114610832576000841561081a5750858301515b600019600386901b1c1916600185901b1785556107c6565b600085815260208120601f198616915b8281101561086157888601518255948401946001909101908401610842565b508582101561087f5787850151600019600388901b60f8161c191681555b5050505050600190811b0190555056fea2646970667358221220e55016248f4050b6f089e2879b7e8f94a8f5f9565d1b5140c27a0b132cea3b2564736f6c63430008130033",
  "linkReferences": {},
  "deployedLinkReferences": {}
}