{
  "_format": "hh-sol-artifact-1",
  "contractName": "FullSchoolSystem",
  "sourceName": "contracts/fullSchoolSystem.sol",
  "abi": [
    {
      "inputs": [
        {
          "internalType": "string",
          "name": "_schoolName",
          "type": "string"
        }
      ],
      "stateMutability": "nonpayable",
      "type": "constructor"
    },
    {
      "inputs": [
        {
          "internalType": "uint256",
          "name": "_id",
          "type": "uint256"
        },
        {
          "internalType": "string",
          "name": "_name",
          "type": "string"
        },
        {
          "internalType": "uint256",
          "name": "_mathGrade",
          "type": "uint256"
        },
        {
          "internalType": "uint256",
          "name": "_scienceGrade",
          "type": "uint256"
        }
      ],
      "name": "addStudent",
      "outputs": [],
      "stateMutability": "nonpayable",
      "type": "function"
    },
    {
      "inputs": [],
      "name": "admin",
      "outputs": [
        {
          "internalType": "address",
          "name": "",
          "type": "address"
        }
      ],
      "stateMutability": "view",
      "type": "function"
    },
    {
      "inputs": [
        {
          "internalType": "address",
          "name": "_newAdmin",
          "type": "address"
        }
      ],
      "name": "changeAdmin",
      "outputs": [],
      "stateMutability": "nonpayable",
      "type": "function"
    },
    {
      "inputs": [],
      "name": "getAdmin",
      "outputs": [
        {
          "internalType": "address",
          "name": "",
          "type": "address"
        }
      ],
      "stateMutability": "view",
      "type": "function"
    },
    {
      "inputs": [
        {
          "internalType": "uint256",
          "name": "_id",
          "type": "uint256"
        }
      ],
      "name": "getFullDetails",
      "outputs": [
        {
          "internalType": "string",
          "name": "",
          "type": "string"
        },
        {
          "internalType": "uint256",
          "name": "",
          "type": "uint256"
        },
        {
          "internalType": "uint256",
          "name": "",
          "type": "uint256"
        },
        {
          "internalType": "string",
          "name": "",
          "type": "string"
        },
        {
          "internalType": "address",
          "name": "",
          "type": "address"
        }
      ],
      "stateMutability": "view",
      "type": "function"
    },
    {
      "inputs": [],
      "name": "getSchoolName",
      "outputs": [
        {
          "internalType": "string",
          "name": "",
          "type": "string"
        }
      ],
      "stateMutability": "view",
      "type": "function"
    },
    {
      "inputs": [
        {
          "internalType": "uint256",
          "name": "_id",
          "type": "uint256"
        }
      ],
      "name": "getStudent",
      "outputs": [
        {
          "internalType": "string",
          "name": "",
          "type": "string"
        },
        {
          "internalType": "uint256",
          "name": "",
          "type": "uint256"
        },
        {
          "internalType": "uint256",
          "name": "",
          "type": "uint256"
        }
      ],
      "stateMutability": "view",
      "type": "function"
    },
    {
      "inputs": [],
      "name": "schoolName",
      "outputs": [
        {
          "internalType": "string",
          "name": "",
          "type": "string"
        }
      ],
      "stateMutability": "view",
      "type": "function"
    },
    {
      "inputs": [
        {
          "internalType": "uint256",
          "name": "",
          "type": "uint256"
        }
      ],
      "name": "students",
      "outputs": [
        {
          "internalType": "string",
          "name": "name",
          "type": "string"
        },
        {
          "internalType": "uint256",
          "name": "mathGrade",
          "type": "uint256"
        },
        {
          "internalType": "uint256",
          "name": "scienceGrade",
          "type": "uint256"
        }
      ],
      "stateMutability": "view",
      "type": "function"
    }
  ],
  "bytecode": "0x60806040523480156200001157600080fd5b5060405162000ba438038062000ba4833981016040819052620000349162000077565b80806000620000448282620001db565b5050600280546001600160a01b0319163317905550620002a79050565b634e487b7160e01b600052604160045260246000fd5b600060208083850312156200008b57600080fd5b82516001600160401b0380821115620000a357600080fd5b818501915085601f830112620000b857600080fd5b815181811115620000cd57620000cd62000061565b604051601f8201601f19908116603f01168101908382118183101715620000f857620000f862000061565b8160405282815288868487010111156200011157600080fd5b600093505b8284101562000135578484018601518185018701529285019262000116565b600086848301015280965050505050505092915050565b600181811c908216806200016157607f821691505b6020821081036200018257634e487b7160e01b600052602260045260246000fd5b50919050565b601f821115620001d657600081815260208120601f850160051c81016020861015620001b15750805b601f850160051c820191505b81811015620001d257828155600101620001bd565b5050505b505050565b81516001600160401b03811115620001f757620001f762000061565b6200020f816200020884546200014c565b8462000188565b602080601f8311600181146200024757600084156200022e5750858301515b600019600386901b1c1916600185901b178555620001d2565b600085815260208120601f198616915b82811015620002785788860151825594840194600190910190840162000257565b5085821015620002975787850151600019600388901b60f8161c191681555b5050505050600190811b01905550565b6108ed80620002b76000396000f3fe608060405234801561001057600080fd5b50600436106100a35760003560e01c80638f28397011610076578063b1d704791161005b578063b1d7047914610159578063d2619fe01461016c578063f851a4401461017457600080fd5b80638f28397014610120578063a5f8e8ce1461013557600080fd5b806306ead22e146100a85780634fc555c3146100d3578063642f9163146100e85780636e9960c3146100fb575b600080fd5b6100bb6100b63660046105b9565b610187565b6040516100ca93929190610618565b60405180910390f35b6100db610231565b6040516100ca919061063d565b6100bb6100f63660046105b9565b6102c3565b6002546001600160a01b03165b6040516001600160a01b0390911681526020016100ca565b61013361012e366004610657565b6103a9565b005b6101486101433660046105b9565b61045b565b6040516100ca959493929190610680565b6101336101673660046106cd565b6104a4565b6100db61052b565b600254610108906001600160a01b031681565b6001602052600090815260409020805481906101a290610758565b80601f01602080910402602001604051908101604052809291908181526020018280546101ce90610758565b801561021b5780601f106101f05761010080835404028352916020019161021b565b820191906000526020600020905b8154815290600101906020018083116101fe57829003601f168201915b5050505050908060010154908060020154905083565b60606000805461024090610758565b80601f016020809104026020016040519081016040528092919081815260200182805461026c90610758565b80156102b95780601f1061028e576101008083540402835291602001916102b9565b820191906000526020600020905b81548152906001019060200180831161029c57829003601f168201915b5050505050905090565b60606000806000600160008681526020019081526020016000206040518060600160405290816000820180546102f890610758565b80601f016020809104026020016040519081016040528092919081815260200182805461032490610758565b80156103715780601f1061034657610100808354040283529160200191610371565b820191906000526020600020905b81548152906001019060200180831161035457829003601f168201915b505050918352505060018201546020808301919091526002909201546040918201528251918301519201519097919650945092505050565b6002546001600160a01b03163314610421576040517f08c379a000000000000000000000000000000000000000000000000000000000815260206004820152600960248201527f4e6f742061646d696e0000000000000000000000000000000000000000000000604482015260640160405180910390fd5b600280547fffffffffffffffffffffffff0000000000000000000000000000000000000000166001600160a01b0392909216919091179055565b60606000806060600080600080610471896102c3565b925092509250828282610482610231565b600254939d929c50909a5098506001600160a01b039091169650945050505050565b604051806060016040528085858080601f01602080910402602001604051908101604052809392919081815260200183838082843760009201829052509385525050506020808301869052604092830185905288825260019052208151819061050d90826107f7565b50602082015160018201556040909101516002909101555050505050565b6000805461053890610758565b80601f016020809104026020016040519081016040528092919081815260200182805461056490610758565b80156105b15780601f10610586576101008083540402835291602001916105b1565b820191906000526020600020905b81548152906001019060200180831161059457829003601f168201915b505050505081565b6000602082840312156105cb57600080fd5b5035919050565b6000815180845260005b818110156105f8576020818501810151868301820152016105dc565b506000602082860101526020601f19601f83011685010191505092915050565b60608152600061062b60608301866105d2565b60208301949094525060400152919050565b60208152600061065060208301846105d2565b9392505050565b60006020828403121561066957600080fd5b81356001600160a01b038116811461065057600080fd5b60a08152600061069360a08301886105d2565b86602084015285604084015282810360608401526106b181866105d2565b9150506001600160a01b03831660808301529695505050505050565b6000806000806000608086880312156106e557600080fd5b85359450602086013567ffffffffffffffff8082111561070457600080fd5b818801915088601f83011261071857600080fd5b81358181111561072757600080fd5b89602082850101111561073957600080fd5b9699602092909201985095966040810135965060600135945092505050565b600181811c9082168061076c57607f821691505b60208210810361078c57634e487b7160e01b600052602260045260246000fd5b50919050565b634e487b7160e01b600052604160045260246000fd5b601f8211156107f257600081815260208120601f850160051c810160208610156107cf5750805b601f850160051c820191505b818110156107ee578281556001016107db565b5050505b505050565b815167ffffffffffffffff81111561081157610811610792565b6108258161081f8454610758565b846107a8565b602080601f83116001811461085a57600084156108425750858301515b600019600386901b1c1916600185901b1785556107ee565b600085815260208120601f198616915b828110156108895788860151825594840194600190910190840161086a565b50858210156108a75787850151600019600388901b60f8161c191681555b5050505050600190811b0190555056fea2646970667358221220a3467b2fc31347bdc992ab8c3512e8eafc7f43977d45224257ebe27be0549d8264736f6c63430008130033",
  "linkReferences": {},
  "deployedLinkReferences": {}
}