{
  "_format": "hh-sol-artifact-1",
  "contractName": "FullSchoolSystem",
  "sourceName": "contracts/fullSchoolSystem.sol",
  "abi": [
    {
      "inputs": [
        {
          "internalType": "string",
          "name": "_schoolName",
          "type": "string"
        }
      ],
      "stateMutability": "nonpayable",
      "type": "constructor"
    },
    {
      "inputs": [
        {
          "internalType": "uint256",
          "name": "_id",
          "type": "uint256"
        },
        {
          "internalType": "string",
          "name": "_name",
          "type": "string"
        },
        {
          "internalType": "uint256",
          "name": "_mathGrade",
          "type": "uint256"
        },
        {
          "internalType": "uint256",
          "name": "_scienceGrade",
          "type": "uint256"
        }
      ],
      "name": "addStudent",
      "outputs": [],
      "stateMutability": "nonpayable",
      "type": "function"
    },
    {
      "inputs": [],
      "name": "admin",
      "outputs": [
        {
          "internalType": "address",
          "name": "",
          "type": "address"
        }
      ],
      "stateMutability": "view",
      "type": "function"
    },
    {
      "inputs": [
        {
          "internalType": "address",
          "name": "_newAdmin",
          "type": "address"
        }
      ],
      "name": "changeAdmin",
      "outputs": [],
      "stateMutability": "nonpayable",
      "type": "function"
    },
    {
      "inputs": [
        {
          "internalType": "uint256",
          "name": "_id",
          "type": "uint256"
        }
      ],
      "name": "getFullDetails",
      "outputs": [
        {
          "internalType": "string",
          "name": "",
          "type": "string"
        },
        {
          "internalType": "uint256",
          "name": "",
          "type": "uint256"
        },
        {
          "internalType": "uint256",
          "name": "",
          "type": "uint256"
        },
        {
          "internalType": "string",
          "name": "",
          "type": "string"
        },
        {
          "internalType": "address",
          "name": "",
          "type": "address"
        }
      ],
      "stateMutability": "view",
      "type": "function"
    },
    {
      "inputs": [],
      "name": "getSchoolName",
      "outputs": [
        {
          "internalType": "string",
          "name": "",
          "type": "string"
        }
      ],
      "stateMutability": "view",
      "type": "function"
    },
    {
      "inputs": [
        {
          "internalType": "uint256",
          "name": "_id",
          "type": "uint256"
        }
      ],
      "name": "getStudent",
      "outputs": [
        {
          "internalType": "string",
          "name": "",
          "type": "string"
        },
        {
          "internalType": "uint256",
          "name": "",
          "type": "uint256"
        },
        {
          "internalType": "uint256",
          "name": "",
          "type": "uint256"
        }
      ],
      "stateMutability": "view",
      "type": "function"
    },
    {
      "inputs": [],
      "name": "schoolName",
      "outputs": [
        {
          "internalType": "string",
          "name": "",
          "type": "string"
        }
      ],
      "stateMutability": "view",
      "type": "function"
    },
    {
      "inputs": [
        {
          "internalType": "uint256",
          "name": "",
          "type": "uint256"
        }
      ],
      "name": "students",
      "outputs": [
        {
          "internalType": "string",
          "name": "name",
          "type": "string"
        },
        {
          "internalType": "uint256",
          "name": "mathGrade",
          "type": "uint256"
        },
        {
          "internalType": "uint256",
          "name": "scienceGrade",
          "type": "uint256"
        }
      ],
      "stateMutability": "view",
      "type": "function"
    }
  ],
  "bytecode": "0x60806040523480156200001157600080fd5b5060405162001601380380620016018339818101604052810190620000379190620002dc565b808062000055676e658c4eecf860f460c01b6200013d60201b60201c565b6200007167419cf49ab341d4c660c01b6200013d60201b60201c565b806000908162000082919062000578565b5050620000a0677ef66ade44a2569460c01b6200014060201b60201c565b50620000bd673f4a1d3a3c25c94360c01b6200014360201b60201c565b620000d967fefdca872894016260c01b6200014360201b60201c565b33600260006101000a81548173ffffffffffffffffffffffffffffffffffffffff021916908373ffffffffffffffffffffffffffffffffffffffff16021790555062000136678648ca717e0e43ee60c01b6200014660201b60201c565b506200065f565b50565b50565b50565b50565b6000604051905090565b600080fd5b600080fd5b600080fd5b600080fd5b6000601f19601f8301169050919050565b7f4e487b7100000000000000000000000000000000000000000000000000000000600052604160045260246000fd5b620001b28262000167565b810181811067ffffffffffffffff82111715620001d457620001d362000178565b5b80604052505050565b6000620001e962000149565b9050620001f78282620001a7565b919050565b600067ffffffffffffffff8211156200021a576200021962000178565b5b620002258262000167565b9050602081019050919050565b60005b838110156200025257808201518184015260208101905062000235565b60008484015250505050565b6000620002756200026f84620001fc565b620001dd565b90508281526020810184848401111562000294576200029362000162565b5b620002a184828562000232565b509392505050565b600082601f830112620002c157620002c06200015d565b5b8151620002d38482602086016200025e565b91505092915050565b600060208284031215620002f557620002f462000153565b5b600082015167ffffffffffffffff81111562000316576200031562000158565b5b6200032484828501620002a9565b91505092915050565b600081519050919050565b7f4e487b7100000000000000000000000000000000000000000000000000000000600052602260045260246000fd5b600060028204905060018216806200038057607f821691505b60208210810362000396576200039562000338565b5b50919050565b60008190508160005260206000209050919050565b60006020601f8301049050919050565b600082821b905092915050565b600060088302620004007fffffffffffffffffffffffffffffffffffffffffffffffffffffffffffffffff82620003c1565b6200040c8683620003c1565b95508019841693508086168417925050509392505050565b6000819050919050565b6000819050919050565b600062000459620004536200044d8462000424565b6200042e565b62000424565b9050919050565b6000819050919050565b620004758362000438565b6200048d620004848262000460565b848454620003ce565b825550505050565b600090565b620004a462000495565b620004b18184846200046a565b505050565b5b81811015620004d957620004cd6000826200049a565b600181019050620004b7565b5050565b601f8211156200052857620004f2816200039c565b620004fd84620003b1565b810160208510156200050d578190505b620005256200051c85620003b1565b830182620004b6565b50505b505050565b600082821c905092915050565b60006200054d600019846008026200052d565b1980831691505092915050565b60006200056883836200053a565b9150826002028217905092915050565b62000583826200032d565b67ffffffffffffffff8111156200059f576200059e62000178565b5b620005ab825462000367565b620005b8828285620004dd565b600060209050601f831160018114620005f05760008415620005db578287015190505b620005e785826200055a565b86555062000657565b601f19841662000600866200039c565b60005b828110156200062a5784890151825560018201915060208501945060208101905062000603565b868310156200064a578489015162000646601f8916826200053a565b8355505b6001600288020188555050505b505050505050565b610f92806200066f6000396000f3fe608060405234801561001057600080fd5b50600436106100885760003560e01c8063a5f8e8ce1161005b578063a5f8e8ce1461012b578063b1d704791461015f578063d2619fe01461017b578063f851a4401461019957610088565b806306ead22e1461008d5780634fc555c3146100bf578063642f9163146100dd5780638f2839701461010f575b600080fd5b6100a760048036038101906100a291906108b4565b6101b7565b6040516100b693929190610980565b60405180910390f35b6100c7610269565b6040516100d491906109be565b60405180910390f35b6100f760048036038101906100f291906108b4565b610337565b60405161010693929190610980565b60405180910390f35b61012960048036038101906101249190610a3e565b610485565b005b610145600480360381019061014091906108b4565b610621565b604051610156959493929190610a7a565b60405180910390f35b61017960048036038101906101749190610b40565b6106e6565b005b6101836107b4565b60405161019091906109be565b60405180910390f35b6101a1610842565b6040516101ae9190610bc8565b60405180910390f35b60016020528060005260406000206000915090508060000180546101da90610c12565b80601f016020809104026020016040519081016040528092919081815260200182805461020690610c12565b80156102535780601f1061022857610100808354040283529160200191610253565b820191906000526020600020905b81548152906001019060200180831161023657829003601f168201915b5050505050908060010154908060020154905083565b606061027f67d4d81658bf8c56d760c01b610868565b61029367cc2fc668a0b128ec60c01b610868565b6102a7670fbdd2e19bf013d460c01b610868565b600080546102b490610c12565b80601f01602080910402602001604051908101604052809291908181526020018280546102e090610c12565b801561032d5780601f106103025761010080835404028352916020019161032d565b820191906000526020600020905b81548152906001019060200180831161031057829003601f168201915b5050505050905090565b606060008061035067e44ce056b2c82f3b60c01b61086b565b61036467f0f46474ad0f079560c01b61086b565b61037867f5bdd8c5fff13f0760c01b61086b565b6000600160008681526020019081526020016000206040518060600160405290816000820180546103a890610c12565b80601f01602080910402602001604051908101604052809291908181526020018280546103d490610c12565b80156104215780601f106103f657610100808354040283529160200191610421565b820191906000526020600020905b81548152906001019060200180831161040457829003601f168201915b5050505050815260200160018201548152602001600282015481525050905061045467f184096a6ada8d7f60c01b61086b565b61046867b82b300422d3eb7a60c01b61086b565b806000015181602001518260400151935093509350509193909250565b610499672043425a96a6cdc360c01b61086e565b6104ad67339ef68edd95783860c01b61086e565b6104c16705bca21fb069d74e60c01b61086e565b6104d5670cf04a34bdd58b3060c01b61086e565b6104e9670a79819ec8cb1d6f60c01b61086e565b600260009054906101000a900473ffffffffffffffffffffffffffffffffffffffff1673ffffffffffffffffffffffffffffffffffffffff163373ffffffffffffffffffffffffffffffffffffffff1614610579576040517f08c379a000000000000000000000000000000000000000000000000000000000815260040161057090610c8f565b60405180910390fd5b61058d67cd7ab2e19926105160c01b61086e565b6105a167fa6b175c909c1a5c60c01b61086e565b6105b56769385be7ccf1d9c760c01b61086e565b6105c9671820dbc9fcac9de160c01b61086e565b6105dd67baecfe2810745d0260c01b61086e565b80600260006101000a81548173ffffffffffffffffffffffffffffffffffffffff021916908373ffffffffffffffffffffffffffffffffffffffff16021790555050565b60606000806060600061063e670e74c89349fd005e60c01b610871565b610652671206ffdd1cb4865360c01b610871565b61066667ce71f957866d28ec60c01b610871565b600080600061067489610337565b92509250925061068e670fdf48eefbc2fdd360c01b610871565b6106a267c96675b81c71689460c01b610871565b8282826106ad610269565b600260009054906101000a900473ffffffffffffffffffffffffffffffffffffffff169750975097509750975050505091939590929450565b6106fa67a5e5d5dba1bca57660c01b61086b565b61070e67f3864a025938409d60c01b61086b565b604051806060016040528085858080601f016020809104026020016040519081016040528093929190818152602001838380828437600081840152601f19601f820116905080830192505050505050508152602001838152602001828152506001600087815260200190815260200160002060008201518160000190816107959190610e8a565b5060208201518160010155604082015181600201559050505050505050565b600080546107c190610c12565b80601f01602080910402602001604051908101604052809291908181526020018280546107ed90610c12565b801561083a5780601f1061080f5761010080835404028352916020019161083a565b820191906000526020600020905b81548152906001019060200180831161081d57829003601f168201915b505050505081565b600260009054906101000a900473ffffffffffffffffffffffffffffffffffffffff1681565b50565b50565b50565b50565b600080fd5b600080fd5b6000819050919050565b6108918161087e565b811461089c57600080fd5b50565b6000813590506108ae81610888565b92915050565b6000602082840312156108ca576108c9610874565b5b60006108d88482850161089f565b91505092915050565b600081519050919050565b600082825260208201905092915050565b60005b8381101561091b578082015181840152602081019050610900565b60008484015250505050565b6000601f19601f8301169050919050565b6000610943826108e1565b61094d81856108ec565b935061095d8185602086016108fd565b61096681610927565b840191505092915050565b61097a8161087e565b82525050565b6000606082019050818103600083015261099a8186610938565b90506109a96020830185610971565b6109b66040830184610971565b949350505050565b600060208201905081810360008301526109d88184610938565b905092915050565b600073ffffffffffffffffffffffffffffffffffffffff82169050919050565b6000610a0b826109e0565b9050919050565b610a1b81610a00565b8114610a2657600080fd5b50565b600081359050610a3881610a12565b92915050565b600060208284031215610a5457610a53610874565b5b6000610a6284828501610a29565b91505092915050565b610a7481610a00565b82525050565b600060a0820190508181036000830152610a948188610938565b9050610aa36020830187610971565b610ab06040830186610971565b8181036060830152610ac28185610938565b9050610ad16080830184610a6b565b9695505050505050565b600080fd5b600080fd5b600080fd5b60008083601f840112610b0057610aff610adb565b5b8235905067ffffffffffffffff811115610b1d57610b1c610ae0565b5b602083019150836001820283011115610b3957610b38610ae5565b5b9250929050565b600080600080600060808688031215610b5c57610b5b610874565b5b6000610b6a8882890161089f565b955050602086013567ffffffffffffffff811115610b8b57610b8a610879565b5b610b9788828901610aea565b94509450506040610baa8882890161089f565b9250506060610bbb8882890161089f565b9150509295509295909350565b6000602082019050610bdd6000830184610a6b565b92915050565b7f4e487b7100000000000000000000000000000000000000000000000000000000600052602260045260246000fd5b60006002820490506001821680610c2a57607f821691505b602082108103610c3d57610c3c610be3565b5b50919050565b7f4e6f742061646d696e0000000000000000000000000000000000000000000000600082015250565b6000610c796009836108ec565b9150610c8482610c43565b602082019050919050565b60006020820190508181036000830152610ca881610c6c565b9050919050565b7f4e487b7100000000000000000000000000000000000000000000000000000000600052604160045260246000fd5b60008190508160005260206000209050919050565b60006020601f8301049050919050565b600082821b905092915050565b600060088302610d407fffffffffffffffffffffffffffffffffffffffffffffffffffffffffffffffff82610d03565b610d4a8683610d03565b95508019841693508086168417925050509392505050565b6000819050919050565b6000610d87610d82610d7d8461087e565b610d62565b61087e565b9050919050565b6000819050919050565b610da183610d6c565b610db5610dad82610d8e565b848454610d10565b825550505050565b600090565b610dca610dbd565b610dd5818484610d98565b505050565b5b81811015610df957610dee600082610dc2565b600181019050610ddb565b5050565b601f821115610e3e57610e0f81610cde565b610e1884610cf3565b81016020851015610e27578190505b610e3b610e3385610cf3565b830182610dda565b50505b505050565b600082821c905092915050565b6000610e6160001984600802610e43565b1980831691505092915050565b6000610e7a8383610e50565b9150826002028217905092915050565b610e93826108e1565b67ffffffffffffffff811115610eac57610eab610caf565b5b610eb68254610c12565b610ec1828285610dfd565b600060209050601f831160018114610ef45760008415610ee2578287015190505b610eec8582610e6e565b865550610f54565b601f198416610f0286610cde565b60005b82811015610f2a57848901518255600182019150602085019450602081019050610f05565b86831015610f475784890151610f43601f891682610e50565b8355505b6001600288020188555050505b50505050505056fea264697066735822122011a83019859c96e374aa2ca9969e7409d9fa5410c4c4609e3cf03fae04f52d7264736f6c63430008130033",
  "linkReferences": {},
  "deployedLinkReferences": {}
}