{
  "_format": "hh-sol-artifact-1",
  "contractName": "FullSchoolSystem",
  "sourceName": "contracts/fullSchoolSystem.sol",
  "abi": [
    {
      "inputs": [
        {
          "internalType": "string",
          "name": "_schoolName",
          "type": "string"
        }
      ],
      "stateMutability": "nonpayable",
      "type": "constructor"
    },
    {
      "inputs": [
        {
          "internalType": "uint256",
          "name": "_id",
          "type": "uint256"
        },
        {
          "internalType": "string",
          "name": "_name",
          "type": "string"
        },
        {
          "internalType": "uint256",
          "name": "_mathGrade",
          "type": "uint256"
        },
        {
          "internalType": "uint256",
          "name": "_scienceGrade",
          "type": "uint256"
        }
      ],
      "name": "addStudent",
      "outputs": [],
      "stateMutability": "nonpayable",
      "type": "function"
    },
    {
      "inputs": [],
      "name": "admin",
      "outputs": [
        {
          "internalType": "address",
          "name": "",
          "type": "address"
        }
      ],
      "stateMutability": "view",
      "type": "function"
    },
    {
      "inputs": [
        {
          "internalType": "address",
          "name": "_newAdmin",
          "type": "address"
        }
      ],
      "name": "changeAdmin",
      "outputs": [],
      "stateMutability": "nonpayable",
      "type": "function"
    },
    {
      "inputs": [],
      "name": "getAdmin",
      "outputs": [
        {
          "internalType": "address",
          "name": "",
          "type": "address"
        }
      ],
      "stateMutability": "view",
      "type": "function"
    },
    {
      "inputs": [
        {
          "internalType": "uint256",
          "name": "_id",
          "type": "uint256"
        }
      ],
      "name": "getFullDetails",
      "outputs": [
        {
          "internalType": "string",
          "name": "",
          "type": "string"
        },
        {
          "internalType": "uint256",
          "name": "",
          "type": "uint256"
        },
        {
          "internalType": "uint256",
          "name": "",
          "type": "uint256"
        },
        {
          "internalType": "string",
          "name": "",
          "type": "string"
        },
        {
          "internalType": "address",
          "name": "",
          "type": "address"
        }
      ],
      "stateMutability": "view",
      "type": "function"
    },
    {
      "inputs": [],
      "name": "getSchoolName",
      "outputs": [
        {
          "internalType": "string",
          "name": "",
          "type": "string"
        }
      ],
      "stateMutability": "view",
      "type": "function"
    },
    {
      "inputs": [
        {
          "internalType": "uint256",
          "name": "_id",
          "type": "uint256"
        }
      ],
      "name": "getStudent",
      "outputs": [
        {
          "internalType": "string",
          "name": "",
          "type": "string"
        },
        {
          "internalType": "uint256",
          "name": "",
          "type": "uint256"
        },
        {
          "internalType": "uint256",
          "name": "",
          "type": "uint256"
        }
      ],
      "stateMutability": "view",
      "type": "function"
    },
    {
      "inputs": [],
      "name": "schoolName",
      "outputs": [
        {
          "internalType": "string",
          "name": "",
          "type": "string"
        }
      ],
      "stateMutability": "view",
      "type": "function"
    },
    {
      "inputs": [
        {
          "internalType": "uint256",
          "name": "",
          "type": "uint256"
        }
      ],
      "name": "students",
      "outputs": [
        {
          "internalType": "string",
          "name": "name",
          "type": "string"
        },
        {
          "internalType": "uint256",
          "name": "mathGrade",
          "type": "uint256"
        },
        {
          "internalType": "uint256",
          "name": "scienceGrade",
          "type": "uint256"
        }
      ],
      "stateMutability": "view",
      "type": "function"
    }
  ],
  "bytecode": "0x60806040523480156200001157600080fd5b50604051620016a0380380620016a08339818101604052810190620000379190620002dc565b808062000055672aaef77368dbd2e160c01b6200013d60201b60201c565b620000716771ea5fa6ae1f2fe560c01b6200013d60201b60201c565b806000908162000082919062000578565b5050620000a0677b369c12fc29db4860c01b6200014060201b60201c565b50620000bd6725efe1d200e708c960c01b6200014360201b60201c565b620000d9677d4d915b6ea4466f60c01b6200014360201b60201c565b33600260006101000a81548173ffffffffffffffffffffffffffffffffffffffff021916908373ffffffffffffffffffffffffffffffffffffffff16021790555062000136678648ca717e0e43ee60c01b6200014660201b60201c565b506200065f565b50565b50565b50565b50565b6000604051905090565b600080fd5b600080fd5b600080fd5b600080fd5b6000601f19601f8301169050919050565b7f4e487b7100000000000000000000000000000000000000000000000000000000600052604160045260246000fd5b620001b28262000167565b810181811067ffffffffffffffff82111715620001d457620001d362000178565b5b80604052505050565b6000620001e962000149565b9050620001f78282620001a7565b919050565b600067ffffffffffffffff8211156200021a576200021962000178565b5b620002258262000167565b9050602081019050919050565b60005b838110156200025257808201518184015260208101905062000235565b60008484015250505050565b6000620002756200026f84620001fc565b620001dd565b90508281526020810184848401111562000294576200029362000162565b5b620002a184828562000232565b509392505050565b600082601f830112620002c157620002c06200015d565b5b8151620002d38482602086016200025e565b91505092915050565b600060208284031215620002f557620002f462000153565b5b600082015167ffffffffffffffff81111562000316576200031562000158565b5b6200032484828501620002a9565b91505092915050565b600081519050919050565b7f4e487b7100000000000000000000000000000000000000000000000000000000600052602260045260246000fd5b600060028204905060018216806200038057607f821691505b60208210810362000396576200039562000338565b5b50919050565b60008190508160005260206000209050919050565b60006020601f8301049050919050565b600082821b905092915050565b600060088302620004007fffffffffffffffffffffffffffffffffffffffffffffffffffffffffffffffff82620003c1565b6200040c8683620003c1565b95508019841693508086168417925050509392505050565b6000819050919050565b6000819050919050565b600062000459620004536200044d8462000424565b6200042e565b62000424565b9050919050565b6000819050919050565b620004758362000438565b6200048d620004848262000460565b848454620003ce565b825550505050565b600090565b620004a462000495565b620004b18184846200046a565b505050565b5b81811015620004d957620004cd6000826200049a565b600181019050620004b7565b5050565b601f8211156200052857620004f2816200039c565b620004fd84620003b1565b810160208510156200050d578190505b620005256200051c85620003b1565b830182620004b6565b50505b505050565b600082821c905092915050565b60006200054d600019846008026200052d565b1980831691505092915050565b60006200056883836200053a565b9150826002028217905092915050565b62000583826200032d565b67ffffffffffffffff8111156200059f576200059e62000178565b5b620005ab825462000367565b620005b8828285620004dd565b600060209050601f831160018114620005f05760008415620005db578287015190505b620005e785826200055a565b86555062000657565b601f19841662000600866200039c565b60005b828110156200062a5784890151825560018201915060208501945060208101905062000603565b868310156200064a578489015162000646601f8916826200053a565b8355505b6001600288020188555050505b505050505050565b611031806200066f6000396000f3fe608060405234801561001057600080fd5b50600436106100a35760003560e01c80638f28397011610076578063b1d704791161005b578063b1d7047914610198578063d2619fe0146101b4578063f851a440146101d2576100a3565b80638f28397014610148578063a5f8e8ce14610164576100a3565b806306ead22e146100a85780634fc555c3146100da578063642f9163146100f85780636e9960c31461012a575b600080fd5b6100c260048036038101906100bd9190610953565b6101f0565b6040516100d193929190610a1f565b60405180910390f35b6100e26102a2565b6040516100ef9190610a5d565b60405180910390f35b610112600480360381019061010d9190610953565b610370565b60405161012193929190610a1f565b60405180910390f35b6101326104be565b60405161013f9190610ac0565b60405180910390f35b610162600480360381019061015d9190610b07565b610524565b005b61017e60048036038101906101799190610953565b6106c0565b60405161018f959493929190610b34565b60405180910390f35b6101b260048036038101906101ad9190610bfa565b610785565b005b6101bc610853565b6040516101c99190610a5d565b60405180910390f35b6101da6108e1565b6040516101e79190610ac0565b60405180910390f35b600160205280600052604060002060009150905080600001805461021390610cb1565b80601f016020809104026020016040519081016040528092919081815260200182805461023f90610cb1565b801561028c5780601f106102615761010080835404028352916020019161028c565b820191906000526020600020905b81548152906001019060200180831161026f57829003601f168201915b5050505050908060010154908060020154905083565b60606102b867127769fca790449b60c01b610907565b6102cc676e658c4eecf860f460c01b610907565b6102e067419cf49ab341d4c660c01b610907565b600080546102ed90610cb1565b80601f016020809104026020016040519081016040528092919081815260200182805461031990610cb1565b80156103665780601f1061033b57610100808354040283529160200191610366565b820191906000526020600020905b81548152906001019060200180831161034957829003601f168201915b5050505050905090565b6060600080610389677ef66ade44a2569460c01b61090a565b61039d67a5e5d5dba1bca57660c01b61090a565b6103b167f3864a025938409d60c01b61090a565b6000600160008681526020019081526020016000206040518060600160405290816000820180546103e190610cb1565b80601f016020809104026020016040519081016040528092919081815260200182805461040d90610cb1565b801561045a5780601f1061042f5761010080835404028352916020019161045a565b820191906000526020600020905b81548152906001019060200180831161043d57829003601f168201915b5050505050815260200160018201548152602001600282015481525050905061048d67e44ce056b2c82f3b60c01b61090a565b6104a167f0f46474ad0f079560c01b61090a565b806000015181602001518260400151935093509350509193909250565b60006104d4670a79819ec8cb1d6f60c01b61090d565b6104e867cd7ab2e19926105160c01b61090d565b6104fc67fa6b175c909c1a5c60c01b61090d565b600260009054906101000a900473ffffffffffffffffffffffffffffffffffffffff16905090565b6105386746693fd4e3857b2e60c01b61090d565b61054c67a96cba1b9730514460c01b61090d565b610560673f4a1d3a3c25c94360c01b61090d565b61057467fefdca872894016260c01b61090d565b61058867339ef68edd95783860c01b61090d565b600260009054906101000a900473ffffffffffffffffffffffffffffffffffffffff1673ffffffffffffffffffffffffffffffffffffffff163373ffffffffffffffffffffffffffffffffffffffff1614610618576040517f08c379a000000000000000000000000000000000000000000000000000000000815260040161060f90610d2e565b60405180910390fd5b61062c6705bca21fb069d74e60c01b61090d565b610640670cf04a34bdd58b3060c01b61090d565b61065467e8059616071a7bf860c01b61090d565b610668671820dbc9fcac9de160c01b61090d565b61067c67baecfe2810745d0260c01b61090d565b80600260006101000a81548173ffffffffffffffffffffffffffffffffffffffff021916908373ffffffffffffffffffffffffffffffffffffffff16021790555050565b6060600080606060006106dd670e74c89349fd005e60c01b610910565b6106f1671206ffdd1cb4865360c01b610910565b61070567ce71f957866d28ec60c01b610910565b600080600061071389610370565b92509250925061072d670fdf48eefbc2fdd360c01b610910565b61074167c96675b81c71689460c01b610910565b82828261074c6102a2565b600260009054906101000a900473ffffffffffffffffffffffffffffffffffffffff169750975097509750975050505091939590929450565b61079967c3db448844f9ff2a60c01b61090a565b6107ad672a7307f72255579660c01b61090a565b604051806060016040528085858080601f016020809104026020016040519081016040528093929190818152602001838380828437600081840152601f19601f820116905080830192505050505050508152602001838152602001828152506001600087815260200190815260200160002060008201518160000190816108349190610f29565b5060208201518160010155604082015181600201559050505050505050565b6000805461086090610cb1565b80601f016020809104026020016040519081016040528092919081815260200182805461088c90610cb1565b80156108d95780601f106108ae576101008083540402835291602001916108d9565b820191906000526020600020905b8154815290600101906020018083116108bc57829003601f168201915b505050505081565b600260009054906101000a900473ffffffffffffffffffffffffffffffffffffffff1681565b50565b50565b50565b50565b600080fd5b600080fd5b6000819050919050565b6109308161091d565b811461093b57600080fd5b50565b60008135905061094d81610927565b92915050565b60006020828403121561096957610968610913565b5b60006109778482850161093e565b91505092915050565b600081519050919050565b600082825260208201905092915050565b60005b838110156109ba57808201518184015260208101905061099f565b60008484015250505050565b6000601f19601f8301169050919050565b60006109e282610980565b6109ec818561098b565b93506109fc81856020860161099c565b610a05816109c6565b840191505092915050565b610a198161091d565b82525050565b60006060820190508181036000830152610a3981866109d7565b9050610a486020830185610a10565b610a556040830184610a10565b949350505050565b60006020820190508181036000830152610a7781846109d7565b905092915050565b600073ffffffffffffffffffffffffffffffffffffffff82169050919050565b6000610aaa82610a7f565b9050919050565b610aba81610a9f565b82525050565b6000602082019050610ad56000830184610ab1565b92915050565b610ae481610a9f565b8114610aef57600080fd5b50565b600081359050610b0181610adb565b92915050565b600060208284031215610b1d57610b1c610913565b5b6000610b2b84828501610af2565b91505092915050565b600060a0820190508181036000830152610b4e81886109d7565b9050610b5d6020830187610a10565b610b6a6040830186610a10565b8181036060830152610b7c81856109d7565b9050610b8b6080830184610ab1565b9695505050505050565b600080fd5b600080fd5b600080fd5b60008083601f840112610bba57610bb9610b95565b5b8235905067ffffffffffffffff811115610bd757610bd6610b9a565b5b602083019150836001820283011115610bf357610bf2610b9f565b5b9250929050565b600080600080600060808688031215610c1657610c15610913565b5b6000610c248882890161093e565b955050602086013567ffffffffffffffff811115610c4557610c44610918565b5b610c5188828901610ba4565b94509450506040610c648882890161093e565b9250506060610c758882890161093e565b9150509295509295909350565b7f4e487b7100000000000000000000000000000000000000000000000000000000600052602260045260246000fd5b60006002820490506001821680610cc957607f821691505b602082108103610cdc57610cdb610c82565b5b50919050565b7f4e6f742061646d696e0000000000000000000000000000000000000000000000600082015250565b6000610d1860098361098b565b9150610d2382610ce2565b602082019050919050565b60006020820190508181036000830152610d4781610d0b565b9050919050565b7f4e487b7100000000000000000000000000000000000000000000000000000000600052604160045260246000fd5b60008190508160005260206000209050919050565b60006020601f8301049050919050565b600082821b905092915050565b600060088302610ddf7fffffffffffffffffffffffffffffffffffffffffffffffffffffffffffffffff82610da2565b610de98683610da2565b95508019841693508086168417925050509392505050565b6000819050919050565b6000610e26610e21610e1c8461091d565b610e01565b61091d565b9050919050565b6000819050919050565b610e4083610e0b565b610e54610e4c82610e2d565b848454610daf565b825550505050565b600090565b610e69610e5c565b610e74818484610e37565b505050565b5b81811015610e9857610e8d600082610e61565b600181019050610e7a565b5050565b601f821115610edd57610eae81610d7d565b610eb784610d92565b81016020851015610ec6578190505b610eda610ed285610d92565b830182610e79565b50505b505050565b600082821c905092915050565b6000610f0060001984600802610ee2565b1980831691505092915050565b6000610f198383610eef565b9150826002028217905092915050565b610f3282610980565b67ffffffffffffffff811115610f4b57610f4a610d4e565b5b610f558254610cb1565b610f60828285610e9c565b600060209050601f831160018114610f935760008415610f81578287015190505b610f8b8582610f0d565b865550610ff3565b601f198416610fa186610d7d565b60005b82811015610fc957848901518255600182019150602085019450602081019050610fa4565b86831015610fe65784890151610fe2601f891682610eef565b8355505b6001600288020188555050505b50505050505056fea26469706673582212206e5593fd5abacbab312fb29928dea36bcefc34bfedb0b93ad0db5f44a770fecd64736f6c63430008130033",
  "linkReferences": {},
  "deployedLinkReferences": {}
}