{
  "_format": "hh-sol-artifact-1",
  "contractName": "Parent_f",
  "sourceName": "contracts/fullSchoolSystem.sol",
  "abi": [
    {
      "inputs": [],
      "name": "externalFunction",
      "outputs": [
        {
          "internalType": "string",
          "name": "",
          "type": "string"
        }
      ],
      "stateMutability": "pure",
      "type": "function"
    }
  ],
  "bytecode": "0x608060405234801561001057600080fd5b506101b2806100206000396000f3fe608060405234801561001057600080fd5b506004361061002b5760003560e01c80633a32b54914610030575b600080fd5b61003861004e565b604051610045919061015a565b60405180910390f35b6060610064675410063f8f0cd62c60c01b6100c7565b61007867042a210bebfe364f60c01b6100c7565b61008c6780644124194a916c60c01b6100c7565b6040518060400160405280601c81526020017f43616c6c65642066726f6d20616e6f7468657220636f6e747261637400000000815250905090565b50565b600081519050919050565b600082825260208201905092915050565b60005b838110156101045780820151818401526020810190506100e9565b60008484015250505050565b6000601f19601f8301169050919050565b600061012c826100ca565b61013681856100d5565b93506101468185602086016100e6565b61014f81610110565b840191505092915050565b600060208201905081810360008301526101748184610121565b90509291505056fea2646970667358221220945eca64d71d4a93053651aad83eda71f46e642627b158672b7f597010b520a464736f6c63430008130033",
  "linkReferences": {},
  "deployedLinkReferences": {}
}