{
  "_format": "hh-sol-artifact-1",
  "contractName": "Parent",
  "sourceName": "contracts/fullSchoolSystem.sol",
  "abi": [
    {
      "inputs": [],
      "name": "sayHello",
      "outputs": [
        {
          "internalType": "string",
          "name": "",
          "type": "string"
        }
      ],
      "stateMutability": "pure",
      "type": "function"
    }
  ],
  "bytecode": "0x608060405234801561001057600080fd5b506101b2806100206000396000f3fe608060405234801561001057600080fd5b506004361061002b5760003560e01c8063ef5fb05b14610030575b600080fd5b61003861004e565b604051610045919061015a565b60405180910390f35b6060610064673904aee1bdae59d960c01b6100c7565b6100786714a8d389629e433360c01b6100c7565b61008c67037bce097307644060c01b6100c7565b6040518060400160405280601181526020017f48656c6c6f2066726f6d20506172656e74000000000000000000000000000000815250905090565b50565b600081519050919050565b600082825260208201905092915050565b60005b838110156101045780820151818401526020810190506100e9565b60008484015250505050565b6000601f19601f8301169050919050565b600061012c826100ca565b61013681856100d5565b93506101468185602086016100e6565b61014f81610110565b840191505092915050565b600060208201905081810360008301526101748184610121565b90509291505056fea264697066735822122074dc8dcd159177caa42d8f3229584df0af4846055e729d1d4d2a10a7b3a9dd5664736f6c63430008130033",
  "linkReferences": {},
  "deployedLinkReferences": {}
}