{
  "_format": "hh-sol-artifact-1",
  "contractName": "StudentsSystem",
  "sourceName": "contracts/fullSchoolSystem.sol",
  "abi": [
    {
      "inputs": [
        {
          "internalType": "string",
          "name": "_schoolName",
          "type": "string"
        }
      ],
      "stateMutability": "nonpayable",
      "type": "constructor"
    },
    {
      "inputs": [
        {
          "internalType": "uint256",
          "name": "_id",
          "type": "uint256"
        },
        {
          "internalType": "string",
          "name": "_name",
          "type": "string"
        },
        {
          "internalType": "uint256",
          "name": "_mathGrade",
          "type": "uint256"
        },
        {
          "internalType": "uint256",
          "name": "_scienceGrade",
          "type": "uint256"
        }
      ],
      "name": "addStudent",
      "outputs": [],
      "stateMutability": "nonpayable",
      "type": "function"
    },
    {
      "inputs": [],
      "name": "getSchoolName",
      "outputs": [
        {
          "internalType": "string",
          "name": "",
          "type": "string"
        }
      ],
      "stateMutability": "view",
      "type": "function"
    },
    {
      "inputs": [
        {
          "internalType": "uint256",
          "name": "_id",
          "type": "uint256"
        }
      ],
      "name": "getStudent",
      "outputs": [
        {
          "internalType": "string",
          "name": "",
          "type": "string"
        },
        {
          "internalType": "uint256",
          "name": "",
          "type": "uint256"
        },
        {
          "internalType": "uint256",
          "name": "",
          "type": "uint256"
        }
      ],
      "stateMutability": "view",
      "type": "function"
    },
    {
      "inputs": [],
      "name": "schoolName",
      "outputs": [
        {
          "internalType": "string",
          "name": "",
          "type": "string"
        }
      ],
      "stateMutability": "view",
      "type": "function"
    },
    {
      "inputs": [
        {
          "internalType": "uint256",
          "name": "",
          "type": "uint256"
        }
      ],
      "name": "students",
      "outputs": [
        {
          "internalType": "string",
          "name": "name",
          "type": "string"
        },
        {
          "internalType": "uint256",
          "name": "mathGrade",
          "type": "uint256"
        },
        {
          "internalType": "uint256",
          "name": "scienceGrade",
          "type": "uint256"
        }
      ],
      "stateMutability": "view",
      "type": "function"
    }
  ],
  "bytecode": "0x60806040523480156200001157600080fd5b50604051620010c6380380620010c683398181016040528101906200003791906200023f565b8062000054676e658c4eecf860f460c01b620000a660201b60201c565b6200007067419cf49ab341d4c660c01b620000a660201b60201c565b8060009081620000819190620004db565b50506200009f677ef66ade44a2569460c01b620000a960201b60201c565b50620005c2565b50565b50565b6000604051905090565b600080fd5b600080fd5b600080fd5b600080fd5b6000601f19601f8301169050919050565b7f4e487b7100000000000000000000000000000000000000000000000000000000600052604160045260246000fd5b6200011582620000ca565b810181811067ffffffffffffffff82111715620001375762000136620000db565b5b80604052505050565b60006200014c620000ac565b90506200015a82826200010a565b919050565b600067ffffffffffffffff8211156200017d576200017c620000db565b5b6200018882620000ca565b9050602081019050919050565b60005b83811015620001b557808201518184015260208101905062000198565b60008484015250505050565b6000620001d8620001d2846200015f565b62000140565b905082815260208101848484011115620001f757620001f6620000c5565b5b6200020484828562000195565b509392505050565b600082601f830112620002245762000223620000c0565b5b815162000236848260208601620001c1565b91505092915050565b600060208284031215620002585762000257620000b6565b5b600082015167ffffffffffffffff811115620002795762000278620000bb565b5b62000287848285016200020c565b91505092915050565b600081519050919050565b7f4e487b7100000000000000000000000000000000000000000000000000000000600052602260045260246000fd5b60006002820490506001821680620002e357607f821691505b602082108103620002f957620002f86200029b565b5b50919050565b60008190508160005260206000209050919050565b60006020601f8301049050919050565b600082821b905092915050565b600060088302620003637fffffffffffffffffffffffffffffffffffffffffffffffffffffffffffffffff8262000324565b6200036f868362000324565b95508019841693508086168417925050509392505050565b6000819050919050565b6000819050919050565b6000620003bc620003b6620003b08462000387565b62000391565b62000387565b9050919050565b6000819050919050565b620003d8836200039b565b620003f0620003e782620003c3565b84845462000331565b825550505050565b600090565b62000407620003f8565b62000414818484620003cd565b505050565b5b818110156200043c5762000430600082620003fd565b6001810190506200041a565b5050565b601f8211156200048b576200045581620002ff565b620004608462000314565b8101602085101562000470578190505b620004886200047f8562000314565b83018262000419565b50505b505050565b600082821c905092915050565b6000620004b06000198460080262000490565b1980831691505092915050565b6000620004cb83836200049d565b9150826002028217905092915050565b620004e68262000290565b67ffffffffffffffff811115620005025762000501620000db565b5b6200050e8254620002ca565b6200051b82828562000440565b600060209050601f8311600181146200055357600084156200053e578287015190505b6200054a8582620004bd565b865550620005ba565b601f1984166200056386620002ff565b60005b828110156200058d5784890151825560018201915060208501945060208101905062000566565b86831015620005ad5784890151620005a9601f8916826200049d565b8355505b6001600288020188555050505b505050505050565b610af480620005d26000396000f3fe608060405234801561001057600080fd5b50600436106100675760003560e01c8063642f916311610050578063642f9163146100bc578063b1d70479146100ee578063d2619fe01461010a57610067565b806306ead22e1461006c5780634fc555c31461009e575b600080fd5b61008660048036038101906100819190610598565b610128565b60405161009593929190610664565b60405180910390f35b6100a66101da565b6040516100b391906106a2565b60405180910390f35b6100d660048036038101906100d19190610598565b6102a8565b6040516100e593929190610664565b60405180910390f35b61010860048036038101906101039190610729565b6103f6565b005b6101126104c4565b60405161011f91906106a2565b60405180910390f35b600160205280600052604060002060009150905080600001805461014b906107e0565b80601f0160208091040260200160405190810160405280929190818152602001828054610177906107e0565b80156101c45780601f10610199576101008083540402835291602001916101c4565b820191906000526020600020905b8154815290600101906020018083116101a757829003601f168201915b5050505050908060010154908060020154905083565b60606101f067d4d81658bf8c56d760c01b610552565b61020467cc2fc668a0b128ec60c01b610552565b610218670fbdd2e19bf013d460c01b610552565b60008054610225906107e0565b80601f0160208091040260200160405190810160405280929190818152602001828054610251906107e0565b801561029e5780601f106102735761010080835404028352916020019161029e565b820191906000526020600020905b81548152906001019060200180831161028157829003601f168201915b5050505050905090565b60606000806102c167e44ce056b2c82f3b60c01b610555565b6102d567f0f46474ad0f079560c01b610555565b6102e967f5bdd8c5fff13f0760c01b610555565b600060016000868152602001908152602001600020604051806060016040529081600082018054610319906107e0565b80601f0160208091040260200160405190810160405280929190818152602001828054610345906107e0565b80156103925780601f1061036757610100808354040283529160200191610392565b820191906000526020600020905b81548152906001019060200180831161037557829003601f168201915b505050505081526020016001820154815260200160028201548152505090506103c567f184096a6ada8d7f60c01b610555565b6103d967b82b300422d3eb7a60c01b610555565b806000015181602001518260400151935093509350509193909250565b61040a67a5e5d5dba1bca57660c01b610555565b61041e67f3864a025938409d60c01b610555565b604051806060016040528085858080601f016020809104026020016040519081016040528093929190818152602001838380828437600081840152601f19601f820116905080830192505050505050508152602001838152602001828152506001600087815260200190815260200160002060008201518160000190816104a591906109ec565b5060208201518160010155604082015181600201559050505050505050565b600080546104d1906107e0565b80601f01602080910402602001604051908101604052809291908181526020018280546104fd906107e0565b801561054a5780601f1061051f5761010080835404028352916020019161054a565b820191906000526020600020905b81548152906001019060200180831161052d57829003601f168201915b505050505081565b50565b50565b600080fd5b600080fd5b6000819050919050565b61057581610562565b811461058057600080fd5b50565b6000813590506105928161056c565b92915050565b6000602082840312156105ae576105ad610558565b5b60006105bc84828501610583565b91505092915050565b600081519050919050565b600082825260208201905092915050565b60005b838110156105ff5780820151818401526020810190506105e4565b60008484015250505050565b6000601f19601f8301169050919050565b6000610627826105c5565b61063181856105d0565b93506106418185602086016105e1565b61064a8161060b565b840191505092915050565b61065e81610562565b82525050565b6000606082019050818103600083015261067e818661061c565b905061068d6020830185610655565b61069a6040830184610655565b949350505050565b600060208201905081810360008301526106bc818461061c565b905092915050565b600080fd5b600080fd5b600080fd5b60008083601f8401126106e9576106e86106c4565b5b8235905067ffffffffffffffff811115610706576107056106c9565b5b602083019150836001820283011115610722576107216106ce565b5b9250929050565b60008060008060006080868803121561074557610744610558565b5b600061075388828901610583565b955050602086013567ffffffffffffffff8111156107745761077361055d565b5b610780888289016106d3565b9450945050604061079388828901610583565b92505060606107a488828901610583565b9150509295509295909350565b7f4e487b7100000000000000000000000000000000000000000000000000000000600052602260045260246000fd5b600060028204905060018216806107f857607f821691505b60208210810361080b5761080a6107b1565b5b50919050565b7f4e487b7100000000000000000000000000000000000000000000000000000000600052604160045260246000fd5b60008190508160005260206000209050919050565b60006020601f8301049050919050565b600082821b905092915050565b6000600883026108a27fffffffffffffffffffffffffffffffffffffffffffffffffffffffffffffffff82610865565b6108ac8683610865565b95508019841693508086168417925050509392505050565b6000819050919050565b60006108e96108e46108df84610562565b6108c4565b610562565b9050919050565b6000819050919050565b610903836108ce565b61091761090f826108f0565b848454610872565b825550505050565b600090565b61092c61091f565b6109378184846108fa565b505050565b5b8181101561095b57610950600082610924565b60018101905061093d565b5050565b601f8211156109a05761097181610840565b61097a84610855565b81016020851015610989578190505b61099d61099585610855565b83018261093c565b50505b505050565b600082821c905092915050565b60006109c3600019846008026109a5565b1980831691505092915050565b60006109dc83836109b2565b9150826002028217905092915050565b6109f5826105c5565b67ffffffffffffffff811115610a0e57610a0d610811565b5b610a1882546107e0565b610a2382828561095f565b600060209050601f831160018114610a565760008415610a44578287015190505b610a4e85826109d0565b865550610ab6565b601f198416610a6486610840565b60005b82811015610a8c57848901518255600182019150602085019450602081019050610a67565b86831015610aa95784890151610aa5601f8916826109b2565b8355505b6001600288020188555050505b50505050505056fea264697066735822122028cd2e8d1b8568108af3ffae21496adbcfa79a09e018d5028d7766c5ad0c08b464736f6c63430008130033",
  "linkReferences": {},
  "deployedLinkReferences": {}
}